{"abi":[{"type":"constructor","inputs":[{"name":"asset_","type":"address","internalType":"address"}],"stateMutability":"nonpayable"},{"type":"function","name":"asset","inputs":[],"outputs":[{"name":"","type":"address","internalType":"address"}],"stateMutability":"view"},{"type":"function","name":"balanceOf","inputs":[{"name":"account","type":"address","internalType":"address"}],"outputs":[{"name":"","type":"uint256","internalType":"uint256"}],"stateMutability":"view"},{"type":"function","name":"convertToAssets","inputs":[{"name":"shares","type":"uint256","internalType":"uint256"}],"outputs":[{"name":"","type":"uint256","internalType":"uint256"}],"stateMutability":"view"},{"type":"function","name":"convertToShares","inputs":[{"name":"assets","type":"uint256","internalType":"uint256"}],"outputs":[{"name":"","type":"uint256","internalType":"uint256"}],"stateMutability":"view"},{"type":"function","name":"deposit","inputs":[{"name":"assets","type":"uint256","internalType":"uint256"},{"name":"receiver","type":"address","internalType":"address"}],"outputs":[{"name":"","type":"uint256","internalType":"uint256"}],"stateMutability":"nonpayable"},{"type":"function","name":"mint","inputs":[{"name":"shares","type":"uint256","internalType":"uint256"},{"name":"receiver","type":"address","internalType":"address"}],"outputs":[{"name":"","type":"uint256","internalType":"uint256"}],"stateMutability":"nonpayable"},{"type":"function","name":"redeem","inputs":[{"name":"shares","type":"uint256","internalType":"uint256"},{"name":"receiver","type":"address","internalType":"address"},{"name":"owner","type":"address","internalType":"address"}],"outputs":[{"name":"","type":"uint256","internalType":"uint256"}],"stateMutability":"nonpayable"},{"type":"function","name":"shareBalance","inputs":[{"name":"","type":"address","internalType":"address"}],"outputs":[{"name":"","type":"uint256","internalType":"uint256"}],"stateMutability":"view"},{"type":"function","name":"totalAssets","inputs":[],"outputs":[{"name":"","type":"uint256","internalType":"uint256"}],"stateMutability":"view"},{"type":"function","name":"totalShares","inputs":[],"outputs":[{"name":"","type":"uint256","internalType":"uint256"}],"stateMutability":"view"},{"type":"function","name":"underlying","inputs":[],"outputs":[{"name":"","type":"address","internalType":"contract IERC20"}],"stateMutability":"view"},{"type":"function","name":"withdraw","inputs":[{"name":"assets","type":"uint256","internalType":"uint256"},{"name":"receiver","type":"address","internalType":"address"},{"name":"owner","type":"address","internalType":"address"}],"outputs":[{"name":"","type":"uint256","internalType":"uint256"}],"stateMutability":"nonpayable"}],"bytecode":{"object":"0x60a060405234801561000f575f80fd5b506040516108eb3803806108eb83398101604081905261002e9161003f565b6001600160a01b031660805261006c565b5f6020828403121561004f575f80fd5b81516001600160a01b0381168114610065575f80fd5b9392505050565b6080516108456100a65f395f818160e50152818161013d01528181610209015281816102d40152818161041501526105e601526108455ff3fe608060405234801561000f575f80fd5b50600436106100b1575f3560e01c806370a082311161006e57806370a082311461015f57806387793ba31461018757806394bf804d146101a6578063b460af94146101b9578063ba087652146101cc578063c6e6f592146101df575f80fd5b806301e1d114146100b557806307a2d13a146100d057806338d52e0f146100e35780633a98ef391461011d5780636e553f65146101255780636f307dc314610138575b5f80fd5b6100bd6101f2565b6040519081526020015b60405180910390f35b6100bd6100de3660046106b4565b61027f565b7f00000000000000000000000000000000000000000000000000000000000000005b6040516001600160a01b0390911681526020016100c7565b6100bd5f5481565b6100bd6101333660046106e6565b6102b0565b6101057f000000000000000000000000000000000000000000000000000000000000000081565b6100bd61016d366004610710565b6001600160a01b03165f9081526001602052604090205490565b6100bd610195366004610710565b60016020525f908152604090205481565b6100bd6101b43660046106e6565b6103e5565b6100bd6101c7366004610730565b6104fd565b6100bd6101da366004610730565b61051e565b6100bd6101ed3660046106b4565b610693565b6040516370a0823160e01b81523060048201525f907f00000000000000000000000000000000000000000000000000000000000000006001600160a01b0316906370a0823190602401602060405180830381865afa158015610256573d5f803e3d5ffd5b505050506040513d601f19601f8201168201806040525081019061027a9190610769565b905090565b5f80545f0361028c575090565b5f546102966101f2565b6102a09084610794565b6102aa91906107ab565b92915050565b6040516323b872dd60e01b8152336004820152306024820152604481018390525f907f00000000000000000000000000000000000000000000000000000000000000006001600160a01b0316906323b872dd906064016020604051808303815f875af1158015610322573d5f803e3d5ffd5b505050506040513d601f19601f8201168201806040525081019061034691906107ca565b6103855760405162461bcd60e51b815260206004820152600b60248201526a3a3930b739b332b91034b760a91b60448201526064015b60405180910390fd5b5f61038f84610693565b90505f545f0361039c5750825b805f808282546103ac91906107e9565b90915550506001600160a01b0383165f90815260016020526040812080548392906103d89084906107e9565b9091555090949350505050565b5f806103f08461027f565b6040516323b872dd60e01b8152336004820152306024820152604481018290529091507f00000000000000000000000000000000000000000000000000000000000000006001600160a01b0316906323b872dd906064016020604051808303815f875af1158015610463573d5f803e3d5ffd5b505050506040513d601f19601f8201168201806040525081019061048791906107ca565b6104c15760405162461bcd60e51b815260206004820152600b60248201526a3a3930b739b332b91034b760a91b604482015260640161037c565b835f808282546104d191906107e9565b90915550506001600160a01b0383165f90815260016020526040812080548692906103d89084906107e9565b5f8061050885610693565b905061051581858561051e565b95945050505050565b6001600160a01b0381165f9081526001602052604081205484111561056e5760405162461bcd60e51b815260206004820152600660248201526573686172657360d01b604482015260640161037c565b5f6105788561027f565b6001600160a01b0384165f908152600160205260408120805492935087929091906105a49084906107fc565b92505081905550845f808282546105bb91906107fc565b909155505060405163a9059cbb60e01b81526001600160a01b038581166004830152602482018390527f0000000000000000000000000000000000000000000000000000000000000000169063a9059cbb906044016020604051808303815f875af115801561062c573d5f803e3d5ffd5b505050506040513d601f19601f8201168201806040525081019061065091906107ca565b61068b5760405162461bcd60e51b815260206004820152600c60248201526b1d1c985b9cd9995c881bdd5d60a21b604482015260640161037c565b949350505050565b5f80545f036106a0575090565b6106a86101f2565b5f546102a09084610794565b5f602082840312156106c4575f80fd5b5035919050565b80356001600160a01b03811681146106e1575f80fd5b919050565b5f80604083850312156106f7575f80fd5b82359150610707602084016106cb565b90509250929050565b5f60208284031215610720575f80fd5b610729826106cb565b9392505050565b5f805f60608486031215610742575f80fd5b83359250610752602085016106cb565b9150610760604085016106cb565b90509250925092565b5f60208284031215610779575f80fd5b5051919050565b634e487b7160e01b5f52601160045260245ffd5b80820281158282048414176102aa576102aa610780565b5f826107c557634e487b7160e01b5f52601260045260245ffd5b500490565b5f602082840312156107da575f80fd5b81518015158114610729575f80fd5b808201808211156102aa576102aa610780565b818103818111156102aa576102aa61078056fea2646970667358221220018ed81404230c7737b7ebc346a369f8d79c09b12f9d28ae71ef0947fc1473ae64736f6c63430008180033","linkReferences":{}},"methodIdentifiers":{"asset()":"38d52e0f","balanceOf(address)":"70a08231","convertToAssets(uint256)":"07a2d13a","convertToShares(uint256)":"c6e6f592","deposit(uint256,address)":"6e553f65","mint(uint256,address)":"94bf804d","redeem(uint256,address,address)":"ba087652","shareBalance(address)":"87793ba3","totalAssets()":"01e1d114","totalShares()":"3a98ef39","underlying()":"6f307dc3","withdraw(uint256,address,address)":"b460af94"},"id":30}