{"abi":[{"type":"constructor","inputs":[{"name":"params_","type":"tuple","internalType":"struct MarketParams","components":[{"name":"loanToken","type":"address","internalType":"address"},{"name":"collateralToken","type":"address","internalType":"address"},{"name":"oracle","type":"address","internalType":"address"},{"name":"irm","type":"address","internalType":"address"},{"name":"lltv","type":"uint256","internalType":"uint256"}]},{"name":"asset_","type":"address","internalType":"address"}],"stateMutability":"nonpayable"},{"type":"function","name":"asset","inputs":[],"outputs":[{"name":"","type":"address","internalType":"contract IERC20"}],"stateMutability":"view"},{"type":"function","name":"market","inputs":[{"name":"","type":"bytes32","internalType":"Id"}],"outputs":[{"name":"","type":"tuple","internalType":"struct Market","components":[{"name":"totalSupplyAssets","type":"uint128","internalType":"uint128"},{"name":"totalSupplyShares","type":"uint128","internalType":"uint128"},{"name":"totalBorrowAssets","type":"uint128","internalType":"uint128"},{"name":"totalBorrowShares","type":"uint128","internalType":"uint128"},{"name":"lastUpdate","type":"uint128","internalType":"uint128"},{"name":"fee","type":"uint128","internalType":"uint128"}]}],"stateMutability":"view"},{"type":"function","name":"params","inputs":[],"outputs":[{"name":"loanToken","type":"address","internalType":"address"},{"name":"collateralToken","type":"address","internalType":"address"},{"name":"oracle","type":"address","internalType":"address"},{"name":"irm","type":"address","internalType":"address"},{"name":"lltv","type":"uint256","internalType":"uint256"}],"stateMutability":"view"},{"type":"function","name":"position","inputs":[{"name":"","type":"bytes32","internalType":"Id"},{"name":"user","type":"address","internalType":"address"}],"outputs":[{"name":"","type":"tuple","internalType":"struct Position","components":[{"name":"supplyShares","type":"uint256","internalType":"uint256"},{"name":"borrowShares","type":"uint128","internalType":"uint128"},{"name":"collateral","type":"uint128","internalType":"uint128"}]}],"stateMutability":"view"},{"type":"function","name":"supply","inputs":[{"name":"","type":"tuple","internalType":"struct MarketParams","components":[{"name":"loanToken","type":"address","internalType":"address"},{"name":"collateralToken","type":"address","internalType":"address"},{"name":"oracle","type":"address","internalType":"address"},{"name":"irm","type":"address","internalType":"address"},{"name":"lltv","type":"uint256","internalType":"uint256"}]},{"name":"assets","type":"uint256","internalType":"uint256"},{"name":"","type":"uint256","internalType":"uint256"},{"name":"onBehalf","type":"address","internalType":"address"},{"name":"","type":"bytes","internalType":"bytes"}],"outputs":[{"name":"assetsSupplied","type":"uint256","internalType":"uint256"},{"name":"sharesSupplied","type":"uint256","internalType":"uint256"}],"stateMutability":"nonpayable"},{"type":"function","name":"withdraw","inputs":[{"name":"","type":"tuple","internalType":"struct MarketParams","components":[{"name":"loanToken","type":"address","internalType":"address"},{"name":"collateralToken","type":"address","internalType":"address"},{"name":"oracle","type":"address","internalType":"address"},{"name":"irm","type":"address","internalType":"address"},{"name":"lltv","type":"uint256","internalType":"uint256"}]},{"name":"assets","type":"uint256","internalType":"uint256"},{"name":"","type":"uint256","internalType":"uint256"},{"name":"onBehalf","type":"address","internalType":"address"},{"name":"receiver","type":"address","internalType":"address"}],"outputs":[{"name":"assetsWithdrawn","type":"uint256","internalType":"uint256"},{"name":"sharesWithdrawn","type":"uint256","internalType":"uint256"}],"stateMutability":"nonpayable"}],"bytecode":{"object":"0x60a060405234801561000f575f80fd5b50604051610a94380380610a9483398101604081905261002e916100b4565b81515f80546001600160a01b03199081166001600160a01b039384161790915560208401516001805483169184169190911790556040840151600280548316918416919091179055606084015160038054909216908316179055608092830151600455169052610164565b80516001600160a01b03811681146100af575f80fd5b919050565b5f8082840360c08112156100c6575f80fd5b60a08112156100d3575f80fd5b5060405160a081016001600160401b038111828210171561010257634e487b7160e01b5f52604160045260245ffd5b60405261010e84610099565b815261011c60208501610099565b602082015261012d60408501610099565b604082015261013e60608501610099565b606082015260808481015190820152915061015b60a08401610099565b90509250929050565b60805161090b6101895f395f818160690152818161038f01526104e0015261090b5ff3fe608060405234801561000f575f80fd5b5060043610610060575f3560e01c806338d52e0f146100645780635c2bea49146100a85780635c60e39a146100d057806393c52062146101ca578063a99aad8914610210578063cff0ab9614610223575b5f80fd5b61008b7f000000000000000000000000000000000000000000000000000000000000000081565b6040516001600160a01b0390911681526020015b60405180910390f35b6100bb6100b6366004610716565b610287565b6040805192835260208301919091520161009f565b61016a6100de36600461076c565b6040805160c0810182525f80825260208201819052918101829052606081018290526080810182905260a081019190915250506040805160c0810182526005546001600160801b038082168352600160801b918290048116602084015260065480821694840194909452928190048316606083015260075480841660808401520490911660a082015290565b60405161009f91905f60c0820190506001600160801b038084511683528060208501511660208401528060408501511660408401528060608501511660608401528060808501511660808401528060a08501511660a08401525092915050565b6101dd6101d8366004610783565b610449565b60408051825181526020808401516001600160801b0390811691830191909152928201519092169082015260600161009f565b6100bb61021e3660046107ad565b6104b2565b5f5460015460025460035460045461024c946001600160a01b0390811694811693811692169085565b604080516001600160a01b0396871681529486166020860152928516928401929092529092166060820152608081019190915260a00161009f565b6001600160a01b0382165f90815260086020526040812080548291908711156102ed5760405162461bcd60e51b8152602060048201526013602482015272696e73756666696369656e742073686172657360681b60448201526064015b60405180910390fd5b86815f015f8282546102ff9190610889565b909155505060055461031b9088906001600160801b0316610889565b600580546001600160801b0319166001600160801b03928316179081905561034c918991600160801b900416610889565b600580546001600160801b03928316600160801b02921691909117905560405163a9059cbb60e01b81526001600160a01b038581166004830152602482018990527f0000000000000000000000000000000000000000000000000000000000000000169063a9059cbb906044016020604051808303815f875af11580156103d5573d5f803e3d5ffd5b505050506040513d601f19601f820116820180604052508101906103f9919061089c565b61043b5760405162461bcd60e51b81526020600482015260136024820152721d1c985b9cd9995c881bdd5d0819985a5b1959606a1b60448201526064016102e4565b509496879650945050505050565b60408051606080820183525f80835260208084018290529284018190526001600160a01b0385168152600883528390208351918201845280548252600101546001600160801b0380821693830193909352600160801b9004909116918101919091525b92915050565b6040516323b872dd60e01b8152336004820152306024820152604481018590525f9081906001600160a01b037f000000000000000000000000000000000000000000000000000000000000000016906323b872dd906064016020604051808303815f875af1158015610526573d5f803e3d5ffd5b505050506040513d601f19601f8201168201806040525081019061054a919061089c565b6105885760405162461bcd60e51b815260206004820152600f60248201526e1d1c985b9cd9995c8819985a5b1959608a1b60448201526064016102e4565b6001600160a01b0384165f908152600860205260408120805490918891829184916105b49084906108c2565b90915550506005546105d09089906001600160801b03166108c2565b600580546001600160801b0319166001600160801b039283161790819055610601918391600160801b9004166108c2565b600580546001600160801b03928316600160801b0292169190911790558793509150509550959350505050565b634e487b7160e01b5f52604160045260245ffd5b604051601f8201601f1916810167ffffffffffffffff8111828210171561066b5761066b61062e565b604052919050565b80356001600160a01b0381168114610689575f80fd5b919050565b5f60a0828403121561069e575f80fd5b60405160a0810181811067ffffffffffffffff821117156106c1576106c161062e565b6040529050806106d083610673565b81526106de60208401610673565b60208201526106ef60408401610673565b604082015261070060608401610673565b6060820152608083013560808201525092915050565b5f805f805f610120868803121561072b575f80fd5b610735878761068e565b945060a0860135935060c0860135925061075160e08701610673565b91506107606101008701610673565b90509295509295909350565b5f6020828403121561077c575f80fd5b5035919050565b5f8060408385031215610794575f80fd5b823591506107a460208401610673565b90509250929050565b5f805f805f61012086880312156107c2575f80fd5b6107cc878761068e565b945060a0860135935060c086013592506107e860e08701610673565b915061010086013567ffffffffffffffff80821115610805575f80fd5b818801915088601f830112610818575f80fd5b81358181111561082a5761082a61062e565b61083d601f8201601f1916602001610642565b9150808252896020828501011115610853575f80fd5b806020840160208401375f602082840101525080925050509295509295909350565b634e487b7160e01b5f52601160045260245ffd5b818103818111156104ac576104ac610875565b5f602082840312156108ac575f80fd5b815180151581146108bb575f80fd5b9392505050565b808201808211156104ac576104ac61087556fea2646970667358221220a815043ca5157e11082609d7693089d3a65327c92e0b873f545d4e5014cd704c64736f6c63430008180033","linkReferences":{}},"methodIdentifiers":{"asset()":"38d52e0f","market(bytes32)":"5c60e39a","params()":"cff0ab96","position(bytes32,address)":"93c52062","supply((address,address,address,address,uint256),uint256,uint256,address,bytes)":"a99aad89","withdraw((address,address,address,address,uint256),uint256,uint256,address,address)":"5c2bea49"},"id":31}