{"abi":[{"type":"constructor","inputs":[{"name":"asset_","type":"address","internalType":"address"},{"name":"strategyId_","type":"bytes32","internalType":"bytes32"},{"name":"pool_","type":"address","internalType":"address"},{"name":"aToken_","type":"address","internalType":"address"},{"name":"referralCode_","type":"uint16","internalType":"uint16"},{"name":"owner_","type":"address","internalType":"address"}],"stateMutability":"nonpayable"},{"type":"function","name":"aToken","inputs":[],"outputs":[{"name":"","type":"address","internalType":"contract IAaveAToken"}],"stateMutability":"view"},{"type":"function","name":"asset","inputs":[],"outputs":[{"name":"","type":"address","internalType":"address"}],"stateMutability":"view"},{"type":"function","name":"deposit","inputs":[{"name":"amount","type":"uint256","internalType":"uint256"}],"outputs":[{"name":"sharesMinted","type":"uint256","internalType":"uint256"}],"stateMutability":"nonpayable"},{"type":"function","name":"isVaultAllowed","inputs":[{"name":"","type":"address","internalType":"address"}],"outputs":[{"name":"","type":"bool","internalType":"bool"}],"stateMutability":"view"},{"type":"function","name":"owner","inputs":[],"outputs":[{"name":"","type":"address","internalType":"address"}],"stateMutability":"view"},{"type":"function","name":"pool","inputs":[],"outputs":[{"name":"","type":"address","internalType":"contract IAavePool"}],"stateMutability":"view"},{"type":"function","name":"referralCode","inputs":[],"outputs":[{"name":"","type":"uint16","internalType":"uint16"}],"stateMutability":"view"},{"type":"function","name":"renounceOwnership","inputs":[],"outputs":[],"stateMutability":"nonpayable"},{"type":"function","name":"setAllowedVault","inputs":[{"name":"vault","type":"address","internalType":"address"},{"name":"allowed","type":"bool","internalType":"bool"}],"outputs":[],"stateMutability":"nonpayable"},{"type":"function","name":"sharesOf","inputs":[{"name":"","type":"address","internalType":"address"}],"outputs":[{"name":"","type":"uint256","internalType":"uint256"}],"stateMutability":"view"},{"type":"function","name":"strategyId","inputs":[],"outputs":[{"name":"","type":"bytes32","internalType":"bytes32"}],"stateMutability":"view"},{"type":"function","name":"totalAssets","inputs":[],"outputs":[{"name":"","type":"uint256","internalType":"uint256"}],"stateMutability":"view"},{"type":"function","name":"totalShares","inputs":[],"outputs":[{"name":"","type":"uint256","internalType":"uint256"}],"stateMutability":"view"},{"type":"function","name":"transferOwnership","inputs":[{"name":"newOwner","type":"address","internalType":"address"}],"outputs":[],"stateMutability":"nonpayable"},{"type":"function","name":"unrealisedBalance","inputs":[],"outputs":[{"name":"","type":"uint256","internalType":"uint256"}],"stateMutability":"view"},{"type":"function","name":"withdraw","inputs":[{"name":"shares","type":"uint256","internalType":"uint256"},{"name":"recipient","type":"address","internalType":"address"}],"outputs":[{"name":"assets","type":"uint256","internalType":"uint256"}],"stateMutability":"nonpayable"},{"type":"function","name":"withdrawAll","inputs":[{"name":"recipient","type":"address","internalType":"address"}],"outputs":[{"name":"assets","type":"uint256","internalType":"uint256"}],"stateMutability":"nonpayable"},{"type":"event","name":"OwnershipTransferred","inputs":[{"name":"previousOwner","type":"address","indexed":true,"internalType":"address"},{"name":"newOwner","type":"address","indexed":true,"internalType":"address"}],"anonymous":false},{"type":"event","name":"VaultAllowlistUpdated","inputs":[{"name":"vault","type":"address","indexed":true,"internalType":"address"},{"name":"allowed","type":"bool","indexed":false,"internalType":"bool"}],"anonymous":false}],"bytecode":{"object":"0x61012060405234801562000011575f80fd5b50604051620013f2380380620013f2833981016040819052620000349162000243565b85856200004133620001d8565b6001600160a01b0382166200008e5760405162461bcd60e51b815260206004820152600e60248201526d1059185c1d195c8e88185cdcd95d60921b60448201526064015b60405180910390fd5b80620000cb5760405162461bcd60e51b815260206004820152600b60248201526a1059185c1d195c8e881a5960aa1b604482015260640162000085565b6001600160a01b0391821660805260a05284166200012c5760405162461bcd60e51b815260206004820152601660248201527f41617665416461707465723a20706f6f6c207a65726f00000000000000000000604482015260640162000085565b6001600160a01b038316620001845760405162461bcd60e51b815260206004820152601860248201527f41617665416461707465723a2061546f6b656e207a65726f0000000000000000604482015260640162000085565b6001600160a01b0380851660c05283811660e05261ffff831661010052811615801590620001bb57506001600160a01b0381163314155b15620001cc57620001cc81620001d8565b505050505050620002be565b5f80546001600160a01b038381166001600160a01b0319831681178455604051919092169283917f8be0079c531659141344cd1fd0a4f28419497f9722a3daafe3b4186f6b6457e09190a35050565b80516001600160a01b03811681146200023e575f80fd5b919050565b5f805f805f8060c0878903121562000259575f80fd5b620002648762000227565b9550602087015194506200027b6040880162000227565b93506200028b6060880162000227565b9250608087015161ffff81168114620002a2575f80fd5b9150620002b260a0880162000227565b90509295509295509295565b60805160a05160c05160e051610100516110a9620003495f395f81816102710152610d7101525f8181610237015261056c01525f818161013c0152818161098d01528181610ce901528181610d1d0152610d9801525f6101d901525f81816101aa015281816105100152818161078e0152818161093d01528181610b280152610cbb01526110a95ff3fe608060405234801561000f575f80fd5b5060043610610105575f3560e01c80636bbdc24b1161009e578063b6b55f251161006e578063b6b55f2514610259578063d8b6d2521461026c578063f2fde38b146102a6578063f5eb42dc146102b9578063fa09e630146102d8575f80fd5b80636bbdc24b14610205578063715018a61461021a5780638da5cb5b14610222578063a0c1f15e14610232575f80fd5b806338d52e0f116100d957806338d52e0f146101a85780633a98ef39146101ce578063492f4e18146101d757806350879e55146101fd575f80fd5b8062f714ce1461010957806301e1d1141461012f57806316f0115b14610137578063280ccd8714610176575b5f80fd5b61011c610117366004610ecc565b6102eb565b6040519081526020015b60405180910390f35b61011c610540565b61015e7f000000000000000000000000000000000000000000000000000000000000000081565b6040516001600160a01b039091168152602001610126565b610198610184366004610ef6565b60036020525f908152604090205460ff1681565b6040519015158152602001610126565b7f000000000000000000000000000000000000000000000000000000000000000061015e565b61011c60015481565b7f000000000000000000000000000000000000000000000000000000000000000061011c565b61011c6105e8565b610218610213366004610f1c565b6105f6565b005b6102186106c9565b5f546001600160a01b031661015e565b61015e7f000000000000000000000000000000000000000000000000000000000000000081565b61011c610267366004610f51565b6106fd565b6102937f000000000000000000000000000000000000000000000000000000000000000081565b60405161ffff9091168152602001610126565b6102186102b4366004610ef6565b610869565b61011c6102c7366004610ef6565b60026020525f908152604090205481565b61011c6102e6366004610ef6565b6108ec565b335f9081526003602052604081205460ff166103225760405162461bcd60e51b815260040161031990610f68565b60405180910390fd5b5f83116103685760405162461bcd60e51b8152602060048201526014602482015273416461707465723a207a65726f2073686172657360601b6044820152606401610319565b6001600160a01b0382166103be5760405162461bcd60e51b815260206004820152601760248201527f416461707465723a207a65726f20726563697069656e740000000000000000006044820152606401610319565b335f908152600260205260409020548381101561041d5760405162461bcd60e51b815260206004820152601c60248201527f416461707465723a20696e73756666696369656e7420736861726573000000006044820152606401610319565b6001545f610429610540565b90505f8211801561043957505f81115b6104765760405162461bcd60e51b815260206004820152600e60248201526d416461707465723a20656d70747960901b6044820152606401610319565b816104818288610fb3565b61048b9190610fd0565b93505f84116104d35760405162461bcd60e51b8152602060048201526014602482015273416461707465723a207a65726f2061737365747360601b6044820152606401610319565b6104dd8684610fef565b335f908152600260205260409020556104f68683610fef565b600155610503338561093a565b6105376001600160a01b037f0000000000000000000000000000000000000000000000000000000000000000168686610a4f565b50505092915050565b5f8061054a610b11565b6040516370a0823160e01b81523060048201529091505f906001600160a01b037f000000000000000000000000000000000000000000000000000000000000000016906370a0823190602401602060405180830381865afa1580156105b1573d5f803e3d5ffd5b505050506040513d601f19601f820116820180604052508101906105d59190611002565b90506105e18183611019565b9250505090565b5f6105f1610540565b905090565b5f546001600160a01b0316331461061f5760405162461bcd60e51b81526004016103199061102c565b6001600160a01b03821661066b5760405162461bcd60e51b8152602060048201526013602482015272416461707465723a207661756c74207a65726f60681b6044820152606401610319565b6001600160a01b0382165f81815260036020908152604091829020805460ff191685151590811790915591519182527f1ec529fc89837cf2f7a9520cf1474cc5faa9a17ecc6a4eae9beaeb5067452a95910160405180910390a25050565b5f546001600160a01b031633146106f25760405162461bcd60e51b81526004016103199061102c565b6106fb5f610b99565b565b335f9081526003602052604081205460ff1661072b5760405162461bcd60e51b815260040161031990610f68565b5f82116107725760405162461bcd60e51b81526020600482015260156024820152741059185c1d195c8e881e995c9bc819195c1bdcda5d605a1b6044820152606401610319565b5f61077b610540565b6001549091506107b66001600160a01b037f000000000000000000000000000000000000000000000000000000000000000016333087610be8565b6107c03385610cb9565b8015806107cb575081155b156107d8578392506107f0565b816107e38286610fb3565b6107ed9190610fd0565b92505b5f83116108315760405162461bcd60e51b815260206004820152600f60248201526e416461707465723a2073686172657360881b6044820152606401610319565b61083b8382611019565b600155335f908152600260205260408120805485929061085c908490611019565b909155505050505b919050565b5f546001600160a01b031633146108925760405162461bcd60e51b81526004016103199061102c565b6001600160a01b0381166108e05760405162461bcd60e51b81526020600482015260156024820152744f776e61626c653a207a65726f206164647265737360581b6044820152606401610319565b6108e981610b99565b50565b335f9081526003602052604081205460ff1661091a5760405162461bcd60e51b815260040161031990610f68565b335f9081526002602052604090205461093381846102eb565b9392505050565b5f7f0000000000000000000000000000000000000000000000000000000000000000604051631a4ca37b60e21b81526001600160a01b038083166004830152602482018590523060448301529192505f917f000000000000000000000000000000000000000000000000000000000000000016906369328dec906064016020604051808303815f875af11580156109d3573d5f803e3d5ffd5b505050506040513d601f19601f820116820180604052508101906109f79190611002565b905082811015610a495760405162461bcd60e51b815260206004820152601b60248201527f41617665416461707465723a2073686f727420776974686472617700000000006044820152606401610319565b50505050565b60405163a9059cbb60e01b81526001600160a01b038381166004830152602482018390525f919085169063a9059cbb906044016020604051808303815f875af1158015610a9e573d5f803e3d5ffd5b505050506040513d601f19601f82011682018060405250810190610ac29190611058565b905080610a495760405162461bcd60e51b815260206004820152601a60248201527f5361666545524332303a207472616e73666572206661696c65640000000000006044820152606401610319565b6040516370a0823160e01b81523060048201525f907f00000000000000000000000000000000000000000000000000000000000000006001600160a01b0316906370a0823190602401602060405180830381865afa158015610b75573d5f803e3d5ffd5b505050506040513d601f19601f820116820180604052508101906105f19190611002565b5f80546001600160a01b038381166001600160a01b0319831681178455604051919092169283917f8be0079c531659141344cd1fd0a4f28419497f9722a3daafe3b4186f6b6457e09190a35050565b6040516323b872dd60e01b81526001600160a01b0384811660048301528381166024830152604482018390525f91908616906323b872dd906064016020604051808303815f875af1158015610c3f573d5f803e3d5ffd5b505050506040513d601f19601f82011682018060405250810190610c639190611058565b905080610cb25760405162461bcd60e51b815260206004820152601e60248201527f5361666545524332303a207472616e7366657246726f6d206661696c656400006044820152606401610319565b5050505050565b7f0000000000000000000000000000000000000000000000000000000000000000610d0e6001600160a01b0382167f00000000000000000000000000000000000000000000000000000000000000005f610df4565b610d426001600160a01b0382167f000000000000000000000000000000000000000000000000000000000000000084610df4565b60405163617ba03760e01b81526001600160a01b0382811660048301526024820184905230604483015261ffff7f00000000000000000000000000000000000000000000000000000000000000001660648301527f0000000000000000000000000000000000000000000000000000000000000000169063617ba037906084015f604051808303815f87803b158015610dd9575f80fd5b505af1158015610deb573d5f803e3d5ffd5b50505050505050565b60405163095ea7b360e01b81526001600160a01b038381166004830152602482018390525f919085169063095ea7b3906044016020604051808303815f875af1158015610e43573d5f803e3d5ffd5b505050506040513d601f19601f82011682018060405250810190610e679190611058565b905080610a495760405162461bcd60e51b815260206004820152601960248201527f5361666545524332303a20617070726f7665206661696c6564000000000000006044820152606401610319565b80356001600160a01b0381168114610864575f80fd5b5f8060408385031215610edd575f80fd5b82359150610eed60208401610eb6565b90509250929050565b5f60208284031215610f06575f80fd5b61093382610eb6565b80151581146108e9575f80fd5b5f8060408385031215610f2d575f80fd5b610f3683610eb6565b91506020830135610f4681610f0f565b809150509250929050565b5f60208284031215610f61575f80fd5b5035919050565b6020808252601a908201527f416461707465723a207661756c74206e6f7420616c6c6f776564000000000000604082015260600190565b634e487b7160e01b5f52601160045260245ffd5b8082028115828204841417610fca57610fca610f9f565b92915050565b5f82610fea57634e487b7160e01b5f52601260045260245ffd5b500490565b81810381811115610fca57610fca610f9f565b5f60208284031215611012575f80fd5b5051919050565b80820180821115610fca57610fca610f9f565b60208082526012908201527127bbb730b136329d103737ba1037bbb732b960711b604082015260600190565b5f60208284031215611068575f80fd5b815161093381610f0f56fea2646970667358221220bc7a7f432419e74894193127695e144a4aca251cc5253228300b9d980cc0b28c64736f6c63430008180033","linkReferences":{}},"methodIdentifiers":{"aToken()":"a0c1f15e","asset()":"38d52e0f","deposit(uint256)":"b6b55f25","isVaultAllowed(address)":"280ccd87","owner()":"8da5cb5b","pool()":"16f0115b","referralCode()":"d8b6d252","renounceOwnership()":"715018a6","setAllowedVault(address,bool)":"6bbdc24b","sharesOf(address)":"f5eb42dc","strategyId()":"492f4e18","totalAssets()":"01e1d114","totalShares()":"3a98ef39","transferOwnership(address)":"f2fde38b","unrealisedBalance()":"50879e55","withdraw(uint256,address)":"00f714ce","withdrawAll(address)":"fa09e630"},"id":30}