{"abi":[{"type":"function","name":"activateEmergency","inputs":[],"outputs":[],"stateMutability":"nonpayable"},{"type":"function","name":"asset","inputs":[],"outputs":[{"name":"","type":"address","internalType":"contract IERC20"}],"stateMutability":"view"},{"type":"function","name":"canEarlyExit","inputs":[],"outputs":[{"name":"","type":"bool","internalType":"bool"}],"stateMutability":"view"},{"type":"function","name":"claim","inputs":[],"outputs":[],"stateMutability":"nonpayable"},{"type":"function","name":"claimCommission","inputs":[{"name":"to","type":"address","internalType":"address"}],"outputs":[],"stateMutability":"nonpayable"},{"type":"function","name":"claimable","inputs":[{"name":"account","type":"address","internalType":"address"}],"outputs":[{"name":"principalOwed","type":"uint256","internalType":"uint256"},{"name":"yieldOwed","type":"uint256","internalType":"uint256"}],"stateMutability":"view"},{"type":"function","name":"commissionBps","inputs":[],"outputs":[{"name":"","type":"uint16","internalType":"uint16"}],"stateMutability":"view"},{"type":"function","name":"commissionDue","inputs":[],"outputs":[{"name":"","type":"uint256","internalType":"uint256"}],"stateMutability":"view"},{"type":"function","name":"creator","inputs":[],"outputs":[{"name":"","type":"address","internalType":"address"}],"stateMutability":"view"},{"type":"function","name":"deposit","inputs":[{"name":"amount","type":"uint256","internalType":"uint256"}],"outputs":[],"stateMutability":"nonpayable"},{"type":"function","name":"earlyExit","inputs":[{"name":"amount","type":"uint256","internalType":"uint256"}],"outputs":[],"stateMutability":"nonpayable"},{"type":"function","name":"entryAmount","inputs":[],"outputs":[{"name":"","type":"uint256","internalType":"uint256"}],"stateMutability":"view"},{"type":"function","name":"exitPenaltyBps","inputs":[],"outputs":[{"name":"","type":"uint16","internalType":"uint16"}],"stateMutability":"view"},{"type":"function","name":"factory","inputs":[],"outputs":[{"name":"","type":"address","internalType":"address"}],"stateMutability":"view"},{"type":"function","name":"harvest","inputs":[],"outputs":[],"stateMutability":"nonpayable"},{"type":"function","name":"initialize","inputs":[{"name":"config","type":"tuple","internalType":"struct ILeagueVault.VaultConfig","components":[{"name":"leagueId","type":"bytes32","internalType":"bytes32"},{"name":"asset","type":"address","internalType":"address"},{"name":"creator","type":"address","internalType":"address"},{"name":"strategyId","type":"bytes32","internalType":"bytes32"},{"name":"entryAmount","type":"uint256","internalType":"uint256"},{"name":"exitPenaltyBps","type":"uint16","internalType":"uint16"},{"name":"commissionBps","type":"uint16","internalType":"uint16"},{"name":"canEarlyExit","type":"bool","internalType":"bool"}]}],"outputs":[],"stateMutability":"nonpayable"},{"type":"function","name":"leagueId","inputs":[],"outputs":[{"name":"","type":"bytes32","internalType":"bytes32"}],"stateMutability":"view"},{"type":"function","name":"lock","inputs":[],"outputs":[],"stateMutability":"nonpayable"},{"type":"function","name":"openClaims","inputs":[],"outputs":[],"stateMutability":"nonpayable"},{"type":"function","name":"resolveEmergency","inputs":[],"outputs":[],"stateMutability":"nonpayable"},{"type":"function","name":"setWinners","inputs":[{"name":"shares","type":"tuple[]","internalType":"struct ILeagueVault.WinnerShare[]","components":[{"name":"account","type":"address","internalType":"address"},{"name":"shareBps","type":"uint16","internalType":"uint16"}]}],"outputs":[],"stateMutability":"nonpayable"},{"type":"function","name":"settle","inputs":[{"name":"","type":"bytes","internalType":"bytes"}],"outputs":[],"stateMutability":"nonpayable"},{"type":"function","name":"status","inputs":[],"outputs":[{"name":"","type":"uint8","internalType":"enum ILeagueVault.Status"}],"stateMutability":"view"},{"type":"function","name":"strategyAdapter","inputs":[],"outputs":[{"name":"","type":"address","internalType":"address"}],"stateMutability":"view"},{"type":"function","name":"strategyId","inputs":[],"outputs":[{"name":"","type":"bytes32","internalType":"bytes32"}],"stateMutability":"view"},{"type":"function","name":"totalDeposited","inputs":[],"outputs":[{"name":"","type":"uint256","internalType":"uint256"}],"stateMutability":"view"},{"type":"function","name":"totalYield","inputs":[],"outputs":[{"name":"","type":"uint256","internalType":"uint256"}],"stateMutability":"view"},{"type":"event","name":"Claimed","inputs":[{"name":"account","type":"address","indexed":true,"internalType":"address"},{"name":"principal","type":"uint256","indexed":false,"internalType":"uint256"},{"name":"yield","type":"uint256","indexed":false,"internalType":"uint256"}],"anonymous":false},{"type":"event","name":"ClaimsOpened","inputs":[],"anonymous":false},{"type":"event","name":"CommissionClaimed","inputs":[{"name":"to","type":"address","indexed":true,"internalType":"address"},{"name":"amount","type":"uint256","indexed":false,"internalType":"uint256"}],"anonymous":false},{"type":"event","name":"Deposited","inputs":[{"name":"sender","type":"address","indexed":true,"internalType":"address"},{"name":"amount","type":"uint256","indexed":false,"internalType":"uint256"}],"anonymous":false},{"type":"event","name":"EarlyExit","inputs":[{"name":"sender","type":"address","indexed":true,"internalType":"address"},{"name":"refunded","type":"uint256","indexed":false,"internalType":"uint256"},{"name":"penalty","type":"uint256","indexed":false,"internalType":"uint256"}],"anonymous":false},{"type":"event","name":"EmergencyActivated","inputs":[],"anonymous":false},{"type":"event","name":"EmergencyResolved","inputs":[],"anonymous":false},{"type":"event","name":"Harvested","inputs":[{"name":"yieldAmount","type":"uint256","indexed":false,"internalType":"uint256"}],"anonymous":false},{"type":"event","name":"Locked","inputs":[{"name":"totalPrincipal","type":"uint256","indexed":false,"internalType":"uint256"}],"anonymous":false},{"type":"event","name":"Settled","inputs":[{"name":"principalReturned","type":"uint256","indexed":false,"internalType":"uint256"},{"name":"yieldPool","type":"uint256","indexed":false,"internalType":"uint256"},{"name":"commission","type":"uint256","indexed":false,"internalType":"uint256"}],"anonymous":false},{"type":"event","name":"WinnersSet","inputs":[{"name":"setter","type":"address","indexed":true,"internalType":"address"},{"name":"winnersCount","type":"uint256","indexed":false,"internalType":"uint256"}],"anonymous":false}],"bytecode":{"object":"0x608060405234801561000f575f80fd5b506122fc8061001d5f395ff3fe608060405234801561000f575f80fd5b50600436106101a1575f3560e01c80639030905e116100f3578063bf2b0e1211610093578063d6b450381161006e578063d6b4503814610346578063dffa11641461036d578063f83d08ba1461037b578063ff50abdc14610383575f80fd5b8063bf2b0e1214610318578063c45a015514610320578063d0322fbf14610333575f80fd5b8063a75b2d6b116100ce578063a75b2d6b146102cc578063ac2ac640146102df578063b6b55f25146102f2578063b8af3d3e14610305575f80fd5b80639030905e1461029d578063991def3c146102b0578063a384375f146102b9575f80fd5b8063402914f51161015e578063464800af11610139578063464800af1461027b578063492f4e18146102845780634e71d92d1461028d5780637a6ae54114610295575f80fd5b8063402914f514610243578063457e8b971461026b5780634641257d14610273575f80fd5b806301418205146101a557806302d05d3f146101bc5780630eac8464146101e757806315c73afd1461020c578063200d2ed21461021657806338d52e0f14610230575b5f80fd5b600c545b6040519081526020015b60405180910390f35b6005546101cf906001600160a01b031681565b6040516001600160a01b0390911681526020016101b3565b6009546101fc90640100000000900460ff1681565b60405190151581526020016101b3565b61021461038b565b005b600954600160281b900460ff166040516101b39190611f71565b6003546101cf906001600160a01b031681565b610256610251366004611fab565b61043a565b604080519283526020830191909152016101b3565b6102146104ab565b6102146105f2565b6101a960065481565b6101a960075481565b6102146107ef565b6102146109ab565b6004546101cf906001600160a01b031681565b6101a960085481565b6102146102c7366004611fcd565b610a51565b6102146102da366004611fe4565b610e77565b6102146102ed366004611fab565b611196565b610214610300366004612053565b6112e7565b610214610313366004612053565b61146d565b6101a9611692565b6002546101cf906001600160a01b031681565b61021461034136600461206a565b6116a8565b60095461035a9062010000900461ffff1681565b60405161ffff90911681526020016101b3565b60095461035a9061ffff1681565b610214611960565b600a546101a9565b6002546001600160a01b031633146103be5760405162461bcd60e51b81526004016103b5906120c4565b60405180910390fd5b6006600954600160281b900460ff1660068111156103de576103de611f5d565b146103fb5760405162461bcd60e51b81526004016103b5906120fb565b6009805460ff60281b1916650400000000001790556040517f80cf79aef2fa8bdb9275d6b40d6eb5c5ee0f74e14ec21e964e23e0415b7f6e2c905f90a1565b5f806005600954600160281b900460ff16600681111561045c5761045c611f5d565b1461046b57505f928392509050565b6001600160a01b0383165f908152601260205260408120805490910361049657505f93849350915050565b61049f81611be9565b50909590945092505050565b6002546001600160a01b031633146104d55760405162461bcd60e51b81526004016103b5906120c4565b6006600954600160281b900460ff1660068111156104f5576104f5611f5d565b036105395760405162461bcd60e51b81526020600482015260146024820152734c65616775655661756c743a20616c726561647960601b60448201526064016103b5565b6009805460ff60281b191665060000000000179055601154156105c85760048054604051630fa09e6360e41b815230928101929092526001600160a01b03169063fa09e630906024016020604051808303815f875af115801561059e573d5f803e3d5ffd5b505050506040513d601f19601f820116820180604052508101906105c29190612127565b505f6011555b6040517fd596bbda13fdbf0904b2a7ce45e50145b26720d719bd8dd257f3020fe7bf880f905f90a1565b6002546001600160a01b0316331461061c5760405162461bcd60e51b81526004016103b5906120c4565b6003600954600160281b900460ff16600681111561063c5761063c611f5d565b146106895760405162461bcd60e51b815260206004820152601960248201527f4c65616775655661756c743a206e6f7420696e7665737465640000000000000060448201526064016103b5565b5f60045f9054906101000a90046001600160a01b03166001600160a01b03166350879e556040518163ffffffff1660e01b8152600401602060405180830381865afa1580156106da573d5f803e3d5ffd5b505050506040513d601f19601f820116820180604052508101906106fe9190612127565b90506010548110156107465760405162461bcd60e51b81526020600482015260116024820152704c65616775655661756c743a206c6f737360781b60448201526064016103b5565b5f601054826107559190612152565b9050600c5481116107a05760405162461bcd60e51b815260206004820152601560248201527413195859dd5955985d5b1d0e881b9bc81e5a595b19605a1b60448201526064016103b5565b5f600c54826107af9190612152565b600c8390556040518181529091507f8e55ccfc9778ff8eba1646d765cf1982537ce0f9257054a17b48aad7452501839060200160405180910390a1505050565b6002600154036108115760405162461bcd60e51b81526004016103b59061216b565b60026001556005600954600160281b900460ff16600681111561083657610836611f5d565b146108535760405162461bcd60e51b81526004016103b5906120fb565b335f90815260126020526040902080546108af5760405162461bcd60e51b815260206004820152601760248201527f4c65616775655661756c743a206e6f206465706f73697400000000000000000060448201526064016103b5565b5f805f6108bb84611c5d565b92509250925083600201548111156108d557600284018190555b5f8311806108e257505f82115b6109255760405162461bcd60e51b81526020600482015260146024820152734c65616775655661756c743a206e6f7468696e6760601b60448201526064016103b5565b82156109445782846001015f82825461093e91906121a2565b90915550505b6109653361095284866121a2565b6003546001600160a01b03169190611c76565b604080518481526020810184905233917f987d620f307ff6b94d58743cb7a7509f24071586a77759b77c2d4e29f75a2f9a91015b60405180910390a25050600180555050565b6002546001600160a01b031633146109d55760405162461bcd60e51b81526004016103b5906120c4565b6004600954600160281b900460ff1660068111156109f5576109f5611f5d565b14610a125760405162461bcd60e51b81526004016103b5906120fb565b6009805460ff60281b1916650500000000001790556040517f95e16d3028fd61e822243bbb1266caad765710eae7087fad07c278251f7261c7905f90a1565b5f5460ff1615610a9c5760405162461bcd60e51b8152602060048201526016602482015275496e697469616c697a61626c653a20616c726561647960501b60448201526064016103b5565b5f805460ff19166001179055610ab0611d3e565b8035610af65760405162461bcd60e51b815260206004820152601560248201527413195859dd5955985d5b1d0e881b195859dd595259605a1b60448201526064016103b5565b5f610b076040830160208401611fab565b6001600160a01b031603610b525760405162461bcd60e51b815260206004820152601260248201527113195859dd5955985d5b1d0e88185cdcd95d60721b60448201526064016103b5565b5f610b636060830160408401611fab565b6001600160a01b031603610bb05760405162461bcd60e51b81526020600482015260146024820152732632b0b3bab2ab30bab63a1d1031b932b0ba37b960611b60448201526064016103b5565b612710610bc360c0830160a084016121b5565b61ffff161115610c0c5760405162461bcd60e51b81526020600482015260146024820152734c65616775655661756c743a2070656e616c747960601b60448201526064016103b5565b612710610c1f60e0830160c084016121b5565b61ffff161115610c715760405162461bcd60e51b815260206004820152601760248201527f4c65616775655661756c743a20636f6d6d697373696f6e00000000000000000060448201526064016103b5565b600280546001600160a01b03191633179055610c936060820160408301611fab565b600580546001600160a01b0319166001600160a01b0392909216919091179055610cc36040820160208301611fab565b600380546001600160a01b0319166001600160a01b0392909216919091179055803560065560608101356007556080810135600855610d0860c0820160a083016121b5565b6009805461ffff191661ffff92909216919091179055610d2e60e0820160c083016121b5565b6009805461ffff92909216620100000263ffff000019909216919091179055610d5e610100820160e083016121e3565b600980549115156401000000000264ff00000000199092169190911790556040516327c3ba2f60e11b8152606082013560048201525f9081903390634f87745e906024016040805180830381865afa158015610dbc573d5f803e3d5ffd5b505050506040513d601f19601f82011682018060405250810190610de091906121fe565b91509150808015610df957506001600160a01b03821615155b610e3d5760405162461bcd60e51b81526020600482015260156024820152744c65616775655661756c743a20737472617465677960581b60448201526064016103b5565b600480546001600160a01b0319166001600160a01b038416179055600980546001919060ff60281b1916600160281b830217905550505050565b6002546001600160a01b03163314610ea15760405162461bcd60e51b81526004016103b5906120c4565b6004600954600160281b900460ff166006811115610ec157610ec1611f5d565b14610ede5760405162461bcd60e51b81526004016103b5906120fb565b6013545f5b81811015610f45575f60125f60138481548110610f0257610f02612236565b5f918252602080832091909101546001600160a01b031683528201929092526040019020600301805461ffff191661ffff92909216919091179055600101610ee3565b50610f5160135f611f27565b50805f805b828110156111165736858583818110610f7157610f71612236565b6040029190910191505f9050610f8a6020830183611fab565b6001600160a01b031603610fb05760405162461bcd60e51b81526004016103b59061224a565b5f610fc160408301602084016121b5565b61ffff161161100a5760405162461bcd60e51b81526020600482015260156024820152744c65616775655661756c743a207a65726f2062707360581b60448201526064016103b5565b5f60128161101b6020850185611fab565b6001600160a01b0316815260208101919091526040015f2080549091506110845760405162461bcd60e51b815260206004820152601760248201527f4c65616775655661756c743a206e6f7420706c6179657200000000000000000060448201526064016103b5565b61109460408301602084016121b5565b60038201805461ffff191661ffff9290921691909117905560136110bb6020840184611fab565b81546001810183555f9283526020928390200180546001600160a01b0319166001600160a01b03929092169190911790556110fc90604084019084016121b5565b61110a9061ffff16856121a2565b93505050600101610f56565b50612710811461115b5760405162461bcd60e51b815260206004820152601060248201526f4c65616775655661756c743a2073756d60801b60448201526064016103b5565b60405183815233907f77d7f774cac8ed45ae444b9e1e4156ff2ef651630957a7fa29f1515ab3b7a1869060200160405180910390a250505050565b6002546001600160a01b031633146111c05760405162461bcd60e51b81526004016103b5906120c4565b6002600154036111e25760405162461bcd60e51b81526004016103b59061216b565b60026001556001600160a01b03811661120d5760405162461bcd60e51b81526004016103b59061224a565b5f600f54600e5461121e9190612152565b90505f811161126f5760405162461bcd60e51b815260206004820152601a60248201527f4c65616775655661756c743a206e6f20636f6d6d697373696f6e00000000000060448201526064016103b5565b80600f5f82825461128091906121a2565b909155505060035461129c906001600160a01b03168383611c76565b816001600160a01b03167f8e14daa5332205b1634040e1054e93d1f5396ec8bf0115d133b7fbaf4a52e411826040516112d791815260200190565b60405180910390a2505060018055565b6002600154036113095760405162461bcd60e51b81526004016103b59061216b565b60026001908155600954600160281b900460ff16600681111561132e5761132e611f5d565b146113765760405162461bcd60e51b81526020600482015260186024820152774c65616775655661756c743a206e6f742066756e64696e6760401b60448201526064016103b5565b600854156113c55760085481146113c55760405162461bcd60e51b815260206004820152601360248201527213195859dd5955985d5b1d0e88185b5bdd5b9d606a1b60448201526064016103b5565b5f81116113e45760405162461bcd60e51b81526004016103b59061224a565b6003546113fc906001600160a01b0316333084611d94565b335f90815260126020526040812080549091839183919061141e9084906121a2565b9250508190555081600a5f82825461143691906121a2565b909155505060405182815233907f2da466a7b24304f47e87fa2e1e5a81b9831ce54fec19055ce277ca2f39ba42c4906020016112d7565b60026001540361148f5760405162461bcd60e51b81526004016103b59061216b565b6002600155600954640100000000900460ff166114e65760405162461bcd60e51b81526020600482015260156024820152742632b0b3bab2ab30bab63a1d1032bc34ba1037b33360591b60448201526064016103b5565b6001600954600160281b900460ff16600681111561150657611506611f5d565b1461154e5760405162461bcd60e51b81526020600482015260186024820152774c65616775655661756c743a206e6f742066756e64696e6760401b60448201526064016103b5565b5f811161156d5760405162461bcd60e51b81526004016103b59061224a565b335f90815260126020526040902080548211156115cc5760405162461bcd60e51b815260206004820152601960248201527f4c65616775655661756c743a20696e73756666696369656e740000000000000060448201526064016103b5565b6009545f90612710906115e39061ffff1685612275565b6115ed919061228c565b90505f6115fa8285612152565b905083835f015f82825461160e9190612152565b9250508190555083600a5f8282546116269190612152565b9250508190555081600b5f82825461163e91906121a2565b909155505060035461165a906001600160a01b03163383611c76565b604080518281526020810184905233917f5a70d1b558b3f3a4f114c1c9ed0ba80f2057dd76534b44d33c75252ba0e55f859101610999565b5f600f54600e546116a39190612152565b905090565b6002546001600160a01b031633146116d25760405162461bcd60e51b81526004016103b5906120c4565b6002600154036116f45760405162461bcd60e51b81526004016103b59061216b565b60026001556003600954600160281b900460ff16600681111561171957611719611f5d565b148061174257506002600954600160281b900460ff16600681111561174057611740611f5d565b145b61178e5760405162461bcd60e51b815260206004820152601760248201527f4c65616775655661756c743a206e6f742061637469766500000000000000000060448201526064016103b5565b6009805460ff60281b1916650400000000001790556011541561181d5760048054604051630fa09e6360e41b815230928101929092526001600160a01b03169063fa09e630906024016020604051808303815f875af11580156117f3573d5f803e3d5ffd5b505050506040513d601f19601f820116820180604052508101906118179190612127565b505f6011555b5f60108190556003546040516370a0823160e01b81523060048201526001600160a01b03909116906370a0823190602401602060405180830381865afa158015611869573d5f803e3d5ffd5b505050506040513d601f19601f8201168201806040525081019061188d9190612127565b600a549091505f818311156118a9576118a68284612152565b90505b600b54156118b6575f600b555b5f80821561190857600954612710906118d99062010000900461ffff1685612275565b6118e3919061228c565b91506118ef8284612152565b905081600e5f82825461190291906121a2565b90915550505b600d819055600c83905560408051858152602081018390529081018390527f321f57f44af402708b8b3bad0bd10012cd568d8696946e26edeb86178bb7c27e9060600160405180910390a15050600180555050505050565b6005546001600160a01b031633148061198357506002546001600160a01b031633145b6119cf5760405162461bcd60e51b815260206004820152601b60248201527f4c65616775655661756c743a206e6f7420617574686f7269736564000000000060448201526064016103b5565b6002600154036119f15760405162461bcd60e51b81526004016103b59061216b565b60026001908155600954600160281b900460ff166006811115611a1657611a16611f5d565b14611a335760405162461bcd60e51b81526004016103b5906120fb565b600a5480611a835760405162461bcd60e51b815260206004820152601960248201527f4c65616775655661756c743a206e6f207072696e636970616c0000000000000060448201526064016103b5565b6009805460ff60281b191665020000000000179055600454600354611ab5916001600160a01b0391821691165f611e65565b600454600354611ad2916001600160a01b03918216911683611e65565b6004805460405163b6b55f2560e01b81529182018390525f916001600160a01b039091169063b6b55f25906024016020604051808303815f875af1158015611b1c573d5f803e3d5ffd5b505050506040513d601f19601f82011682018060405250810190611b409190612127565b90505f8111611b8a5760405162461bcd60e51b81526020600482015260166024820152754c65616775655661756c743a206e6f2073686172657360501b60448201526064016103b5565b60108290556011819055600a8290556009805460ff60281b1916650300000000001790556040805183815290517f032bc66be43dbccb7487781d168eb7bda224628a3b2c3388bdf69b532a3a16119181900360200190a1505060018055565b5f805f8360010154845f0154611bff9190612152565b600385015490935061ffff1615611c56576003840154600d5461271091611c2c9161ffff90911690612275565b611c36919061228c565b90508360020154811115611c56576002840154611c539082612152565b91505b9193909250565b5f805f611c6984611be9565b9196909550909350915050565b60405163a9059cbb60e01b81526001600160a01b038381166004830152602482018390525f919085169063a9059cbb906044016020604051808303815f875af1158015611cc5573d5f803e3d5ffd5b505050506040513d601f19601f82011682018060405250810190611ce991906122ab565b905080611d385760405162461bcd60e51b815260206004820152601a60248201527f5361666545524332303a207472616e73666572206661696c656400000000000060448201526064016103b5565b50505050565b60015415611d8e5760405162461bcd60e51b815260206004820152601d60248201527f5265656e7472616e637947756172643a20616c726561647920696e697400000060448201526064016103b5565b60018055565b6040516323b872dd60e01b81526001600160a01b0384811660048301528381166024830152604482018390525f91908616906323b872dd906064016020604051808303815f875af1158015611deb573d5f803e3d5ffd5b505050506040513d601f19601f82011682018060405250810190611e0f91906122ab565b905080611e5e5760405162461bcd60e51b815260206004820152601e60248201527f5361666545524332303a207472616e7366657246726f6d206661696c6564000060448201526064016103b5565b5050505050565b60405163095ea7b360e01b81526001600160a01b038381166004830152602482018390525f919085169063095ea7b3906044016020604051808303815f875af1158015611eb4573d5f803e3d5ffd5b505050506040513d601f19601f82011682018060405250810190611ed891906122ab565b905080611d385760405162461bcd60e51b815260206004820152601960248201527f5361666545524332303a20617070726f7665206661696c65640000000000000060448201526064016103b5565b5080545f8255905f5260205f2090810190611f429190611f45565b50565b5b80821115611f59575f8155600101611f46565b5090565b634e487b7160e01b5f52602160045260245ffd5b6020810160078310611f9157634e487b7160e01b5f52602160045260245ffd5b91905290565b6001600160a01b0381168114611f42575f80fd5b5f60208284031215611fbb575f80fd5b8135611fc681611f97565b9392505050565b5f6101008284031215611fde575f80fd5b50919050565b5f8060208385031215611ff5575f80fd5b823567ffffffffffffffff8082111561200c575f80fd5b818501915085601f83011261201f575f80fd5b81358181111561202d575f80fd5b8660208260061b8501011115612041575f80fd5b60209290920196919550909350505050565b5f60208284031215612063575f80fd5b5035919050565b5f806020838503121561207b575f80fd5b823567ffffffffffffffff80821115612092575f80fd5b818501915085601f8301126120a5575f80fd5b8135818111156120b3575f80fd5b866020828501011115612041575f80fd5b60208082526018908201527f4c65616775655661756c743a206e6f7420666163746f72790000000000000000604082015260600190565b6020808252601290820152714c65616775655661756c743a20737461746560701b604082015260600190565b5f60208284031215612137575f80fd5b5051919050565b634e487b7160e01b5f52601160045260245ffd5b818103818111156121655761216561213e565b92915050565b6020808252601a908201527f5265656e7472616e637947756172643a207265656e7472616e74000000000000604082015260600190565b808201808211156121655761216561213e565b5f602082840312156121c5575f80fd5b813561ffff81168114611fc6575f80fd5b8015158114611f42575f80fd5b5f602082840312156121f3575f80fd5b8135611fc6816121d6565b5f806040838503121561220f575f80fd5b825161221a81611f97565b602084015190925061222b816121d6565b809150509250929050565b634e487b7160e01b5f52603260045260245ffd5b6020808252601190820152704c65616775655661756c743a207a65726f60781b604082015260600190565b80820281158282048414176121655761216561213e565b5f826122a657634e487b7160e01b5f52601260045260245ffd5b500490565b5f602082840312156122bb575f80fd5b8151611fc6816121d656fea26469706673582212208bc514215f6a699afe41098ba540bbeaded00611a3267e85e4b1fd2af2ebdaac64736f6c63430008180033","linkReferences":{}},"methodIdentifiers":{"activateEmergency()":"457e8b97","asset()":"38d52e0f","canEarlyExit()":"0eac8464","claim()":"4e71d92d","claimCommission(address)":"ac2ac640","claimable(address)":"402914f5","commissionBps()":"d6b45038","commissionDue()":"bf2b0e12","creator()":"02d05d3f","deposit(uint256)":"b6b55f25","earlyExit(uint256)":"b8af3d3e","entryAmount()":"991def3c","exitPenaltyBps()":"dffa1164","factory()":"c45a0155","harvest()":"4641257d","initialize((bytes32,address,address,bytes32,uint256,uint16,uint16,bool))":"a384375f","leagueId()":"464800af","lock()":"f83d08ba","openClaims()":"7a6ae541","resolveEmergency()":"15c73afd","setWinners((address,uint16)[])":"a75b2d6b","settle(bytes)":"d0322fbf","status()":"200d2ed2","strategyAdapter()":"9030905e","strategyId()":"492f4e18","totalDeposited()":"ff50abdc","totalYield()":"01418205"},"id":29}