{"abi":[{"type":"constructor","inputs":[{"name":"asset_","type":"address","internalType":"address"},{"name":"strategyId_","type":"bytes32","internalType":"bytes32"},{"name":"morpho_","type":"address","internalType":"address"},{"name":"params_","type":"tuple","internalType":"struct MarketParams","components":[{"name":"loanToken","type":"address","internalType":"address"},{"name":"collateralToken","type":"address","internalType":"address"},{"name":"oracle","type":"address","internalType":"address"},{"name":"irm","type":"address","internalType":"address"},{"name":"lltv","type":"uint256","internalType":"uint256"}]},{"name":"owner_","type":"address","internalType":"address"}],"stateMutability":"nonpayable"},{"type":"function","name":"asset","inputs":[],"outputs":[{"name":"","type":"address","internalType":"address"}],"stateMutability":"view"},{"type":"function","name":"deposit","inputs":[{"name":"amount","type":"uint256","internalType":"uint256"}],"outputs":[{"name":"sharesMinted","type":"uint256","internalType":"uint256"}],"stateMutability":"nonpayable"},{"type":"function","name":"isVaultAllowed","inputs":[{"name":"","type":"address","internalType":"address"}],"outputs":[{"name":"","type":"bool","internalType":"bool"}],"stateMutability":"view"},{"type":"function","name":"marketId","inputs":[],"outputs":[{"name":"","type":"bytes32","internalType":"bytes32"}],"stateMutability":"view"},{"type":"function","name":"marketParams","inputs":[],"outputs":[{"name":"loanToken","type":"address","internalType":"address"},{"name":"collateralToken","type":"address","internalType":"address"},{"name":"oracle","type":"address","internalType":"address"},{"name":"irm","type":"address","internalType":"address"},{"name":"lltv","type":"uint256","internalType":"uint256"}],"stateMutability":"view"},{"type":"function","name":"morpho","inputs":[],"outputs":[{"name":"","type":"address","internalType":"contract IMorpho"}],"stateMutability":"view"},{"type":"function","name":"owner","inputs":[],"outputs":[{"name":"","type":"address","internalType":"address"}],"stateMutability":"view"},{"type":"function","name":"renounceOwnership","inputs":[],"outputs":[],"stateMutability":"nonpayable"},{"type":"function","name":"setAllowedVault","inputs":[{"name":"vault","type":"address","internalType":"address"},{"name":"allowed","type":"bool","internalType":"bool"}],"outputs":[],"stateMutability":"nonpayable"},{"type":"function","name":"sharesOf","inputs":[{"name":"","type":"address","internalType":"address"}],"outputs":[{"name":"","type":"uint256","internalType":"uint256"}],"stateMutability":"view"},{"type":"function","name":"strategyId","inputs":[],"outputs":[{"name":"","type":"bytes32","internalType":"bytes32"}],"stateMutability":"view"},{"type":"function","name":"totalAssets","inputs":[],"outputs":[{"name":"","type":"uint256","internalType":"uint256"}],"stateMutability":"view"},{"type":"function","name":"totalShares","inputs":[],"outputs":[{"name":"","type":"uint256","internalType":"uint256"}],"stateMutability":"view"},{"type":"function","name":"transferOwnership","inputs":[{"name":"newOwner","type":"address","internalType":"address"}],"outputs":[],"stateMutability":"nonpayable"},{"type":"function","name":"unrealisedBalance","inputs":[],"outputs":[{"name":"","type":"uint256","internalType":"uint256"}],"stateMutability":"view"},{"type":"function","name":"withdraw","inputs":[{"name":"shares","type":"uint256","internalType":"uint256"},{"name":"recipient","type":"address","internalType":"address"}],"outputs":[{"name":"assets","type":"uint256","internalType":"uint256"}],"stateMutability":"nonpayable"},{"type":"function","name":"withdrawAll","inputs":[{"name":"recipient","type":"address","internalType":"address"}],"outputs":[{"name":"assets","type":"uint256","internalType":"uint256"}],"stateMutability":"nonpayable"},{"type":"event","name":"OwnershipTransferred","inputs":[{"name":"previousOwner","type":"address","indexed":true,"internalType":"address"},{"name":"newOwner","type":"address","indexed":true,"internalType":"address"}],"anonymous":false},{"type":"event","name":"VaultAllowlistUpdated","inputs":[{"name":"vault","type":"address","indexed":true,"internalType":"address"},{"name":"allowed","type":"bool","indexed":false,"internalType":"bool"}],"anonymous":false}],"bytecode":{"object":"0x60e060405234801562000010575f80fd5b506040516200184e3803806200184e8339810160408190526200003391620002c2565b84846200004033620001e1565b6001600160a01b0382166200008d5760405162461bcd60e51b815260206004820152600e60248201526d1059185c1d195c8e88185cdcd95d60921b60448201526064015b60405180910390fd5b80620000ca5760405162461bcd60e51b815260206004820152600b60248201526a1059185c1d195c8e881a5960aa1b604482015260640162000084565b6001600160a01b0391821660805260a05283166200012b5760405162461bcd60e51b815260206004820152601a60248201527f4d6f7270686f416461707465723a206d6f7270686f207a65726f000000000000604482015260640162000084565b6001600160a01b0380841660c0528251600480549183166001600160a01b03199283161790556020840151600580549184169183169190911790556040840151600680549184169183169190911790556060840151600780549190931691161790556080820151600855620001a08262000230565b6009556001600160a01b03811615801590620001c557506001600160a01b0381163314155b15620001d657620001d681620001e1565b5050505050620003b2565b5f80546001600160a01b038381166001600160a01b0319831681178455604051919092169283917f8be0079c531659141344cd1fd0a4f28419497f9722a3daafe3b4186f6b6457e09190a35050565b80516020808301516040808501516060860151608087015192515f96620002899690959491016001600160a01b039586168152938516602085015291841660408401529092166060820152608081019190915260a00190565b604051602081830303815290604052805190602001209050919050565b80516001600160a01b0381168114620002bd575f80fd5b919050565b5f805f805f858703610120811215620002d9575f80fd5b620002e487620002a6565b955060208701519450620002fb60408801620002a6565b935060a0605f19820112156200030f575f80fd5b5060405160a081016001600160401b03811182821017156200033f57634e487b7160e01b5f52604160045260245ffd5b6040526200035060608801620002a6565b81526200036060808801620002a6565b60208201526200037360a08801620002a6565b60408201526200038660c08801620002a6565b606082015260e087015160808201529150620003a66101008701620002a6565b90509295509295909350565b60805160a05160c05161141d620004315f395f818161028d015281816105d9015281816106a401528181610afe01528181610bdc01528181610e1901528181610e4d0152610e8b01525f6101ae01525f818161016b015281816105190152818161054d0152818161091701528181610ad20152610deb015261141d5ff3fe608060405234801561000f575f80fd5b5060043610610105575f3560e01c80636ed71ede1161009e578063b6b55f251161006e578063b6b55f2514610275578063d8fbc83314610288578063f2fde38b146102af578063f5eb42dc146102c2578063fa09e630146102e1575f80fd5b80636ed71ede146101ef578063715018a6146101f85780637b9e68f2146102005780638da5cb5b14610265575f80fd5b80633a98ef39116100d95780633a98ef39146101a3578063492f4e18146101ac57806350879e55146101d25780636bbdc24b146101da575f80fd5b8062f714ce1461010957806301e1d1141461012f578063280ccd871461013757806338d52e0f14610169575b5f80fd5b61011c610117366004611030565b6102f4565b6040519081526020015b60405180910390f35b61011c610549565b61015961014536600461105a565b60036020525f908152604090205460ff1681565b6040519015158152602001610126565b7f00000000000000000000000000000000000000000000000000000000000000005b6040516001600160a01b039091168152602001610126565b61011c60015481565b7f000000000000000000000000000000000000000000000000000000000000000061011c565b61011c610771565b6101ed6101e8366004611080565b61077f565b005b61011c60095481565b6101ed610852565b60045460055460065460075460085461022a946001600160a01b0390811694811693811692169085565b604080516001600160a01b0396871681529486166020860152928516928401929092529092166060820152608081019190915260a001610126565b5f546001600160a01b031661018b565b61011c6102833660046110b5565b610886565b61018b7f000000000000000000000000000000000000000000000000000000000000000081565b6101ed6102bd36600461105a565b6109f2565b61011c6102d036600461105a565b60026020525f908152604090205481565b61011c6102ef36600461105a565b610a75565b335f9081526003602052604081205460ff1661032b5760405162461bcd60e51b8152600401610322906110cc565b60405180910390fd5b5f83116103715760405162461bcd60e51b8152602060048201526014602482015273416461707465723a207a65726f2073686172657360601b6044820152606401610322565b6001600160a01b0382166103c75760405162461bcd60e51b815260206004820152601760248201527f416461707465723a207a65726f20726563697069656e740000000000000000006044820152606401610322565b335f90815260026020526040902054838110156104265760405162461bcd60e51b815260206004820152601c60248201527f416461707465723a20696e73756666696369656e7420736861726573000000006044820152606401610322565b6001545f610432610549565b90505f8211801561044257505f81115b61047f5760405162461bcd60e51b815260206004820152600e60248201526d416461707465723a20656d70747960901b6044820152606401610322565b8161048a8288611117565b6104949190611134565b93505f84116104dc5760405162461bcd60e51b8152602060048201526014602482015273416461707465723a207a65726f2061737365747360601b6044820152606401610322565b6104e68684611153565b335f908152600260205260409020556104ff8683611153565b60015561050c3385610ac3565b6105406001600160a01b037f0000000000000000000000000000000000000000000000000000000000000000168686610c07565b50505092915050565b5f807f00000000000000000000000000000000000000000000000000000000000000006040516370a0823160e01b81523060048201526001600160a01b0391909116906370a0823190602401602060405180830381865afa1580156105b0573d5f803e3d5ffd5b505050506040513d601f19601f820116820180604052508101906105d49190611166565b90505f7f00000000000000000000000000000000000000000000000000000000000000006001600160a01b0316635c60e39a6009546040518263ffffffff1660e01b815260040161062791815260200190565b60c060405180830381865afa158015610642573d5f803e3d5ffd5b505050506040513d601f19601f820116820180604052508101906106669190611193565b905080602001516001600160801b03165f036106825750919050565b6009546040516349e2903160e11b815260048101919091523060248201525f907f00000000000000000000000000000000000000000000000000000000000000006001600160a01b0316906393c5206290604401606060405180830381865afa1580156106f1573d5f803e3d5ffd5b505050506040513d601f19601f82011682018060405250810190610715919061123c565b80519091505f0361072857509092915050565b5f82602001516001600160801b0316835f01516001600160801b0316835f01516107529190611117565b61075c9190611134565b905061076881856112ab565b94505050505090565b5f61077a610549565b905090565b5f546001600160a01b031633146107a85760405162461bcd60e51b8152600401610322906112be565b6001600160a01b0382166107f45760405162461bcd60e51b8152602060048201526013602482015272416461707465723a207661756c74207a65726f60681b6044820152606401610322565b6001600160a01b0382165f81815260036020908152604091829020805460ff191685151590811790915591519182527f1ec529fc89837cf2f7a9520cf1474cc5faa9a17ecc6a4eae9beaeb5067452a95910160405180910390a25050565b5f546001600160a01b0316331461087b5760405162461bcd60e51b8152600401610322906112be565b6108845f610cc9565b565b335f9081526003602052604081205460ff166108b45760405162461bcd60e51b8152600401610322906110cc565b5f82116108fb5760405162461bcd60e51b81526020600482015260156024820152741059185c1d195c8e881e995c9bc819195c1bdcda5d605a1b6044820152606401610322565b5f610904610549565b60015490915061093f6001600160a01b037f000000000000000000000000000000000000000000000000000000000000000016333087610d18565b6109493385610de9565b801580610954575081155b1561096157839250610979565b8161096c8286611117565b6109769190611134565b92505b5f83116109ba5760405162461bcd60e51b815260206004820152600f60248201526e416461707465723a2073686172657360881b6044820152606401610322565b6109c483826112ab565b600155335f90815260026020526040812080548592906109e59084906112ab565b909155505050505b919050565b5f546001600160a01b03163314610a1b5760405162461bcd60e51b8152600401610322906112be565b6001600160a01b038116610a695760405162461bcd60e51b81526020600482015260156024820152744f776e61626c653a207a65726f206164647265737360581b6044820152606401610322565b610a7281610cc9565b50565b335f9081526003602052604081205460ff16610aa35760405162461bcd60e51b8152600401610322906110cc565b335f90815260026020526040902054610abc81846102f4565b9392505050565b604051635c2bea4960e01b81527f0000000000000000000000000000000000000000000000000000000000000000905f906001600160a01b037f00000000000000000000000000000000000000000000000000000000000000001690635c2bea4990610b3b9060049087908690309081908501611328565b60408051808303815f875af1158015610b56573d5f803e3d5ffd5b505050506040513d601f19601f82011682018060405250810190610b7a9190611364565b50905082811015610bcd5760405162461bcd60e51b815260206004820152601d60248201527f4d6f7270686f416461707465723a2077697468647261772073686f72740000006044820152606401610322565b610c016001600160a01b0383167f00000000000000000000000000000000000000000000000000000000000000005f610f58565b50505050565b60405163a9059cbb60e01b81526001600160a01b038381166004830152602482018390525f919085169063a9059cbb906044016020604051808303815f875af1158015610c56573d5f803e3d5ffd5b505050506040513d601f19601f82011682018060405250810190610c7a9190611386565b905080610c015760405162461bcd60e51b815260206004820152601a60248201527f5361666545524332303a207472616e73666572206661696c65640000000000006044820152606401610322565b5f80546001600160a01b038381166001600160a01b0319831681178455604051919092169283917f8be0079c531659141344cd1fd0a4f28419497f9722a3daafe3b4186f6b6457e09190a35050565b6040516323b872dd60e01b81526001600160a01b0384811660048301528381166024830152604482018390525f91908616906323b872dd906064016020604051808303815f875af1158015610d6f573d5f803e3d5ffd5b505050506040513d601f19601f82011682018060405250810190610d939190611386565b905080610de25760405162461bcd60e51b815260206004820152601e60248201527f5361666545524332303a207472616e7366657246726f6d206661696c656400006044820152606401610322565b5050505050565b7f0000000000000000000000000000000000000000000000000000000000000000610e3e6001600160a01b0382167f00000000000000000000000000000000000000000000000000000000000000005f610f58565b610e726001600160a01b0382167f000000000000000000000000000000000000000000000000000000000000000084610f58565b60405163a99aad8960e01b81525f906001600160a01b037f0000000000000000000000000000000000000000000000000000000000000000169063a99aad8990610ec69060049087908690309084016113a1565b60408051808303815f875af1158015610ee1573d5f803e3d5ffd5b505050506040513d601f19601f82011682018060405250810190610f059190611364565b50905082811015610c015760405162461bcd60e51b815260206004820152601b60248201527f4d6f7270686f416461707465723a20737570706c792073686f727400000000006044820152606401610322565b60405163095ea7b360e01b81526001600160a01b038381166004830152602482018390525f919085169063095ea7b3906044016020604051808303815f875af1158015610fa7573d5f803e3d5ffd5b505050506040513d601f19601f82011682018060405250810190610fcb9190611386565b905080610c015760405162461bcd60e51b815260206004820152601960248201527f5361666545524332303a20617070726f7665206661696c6564000000000000006044820152606401610322565b80356001600160a01b03811681146109ed575f80fd5b5f8060408385031215611041575f80fd5b823591506110516020840161101a565b90509250929050565b5f6020828403121561106a575f80fd5b610abc8261101a565b8015158114610a72575f80fd5b5f8060408385031215611091575f80fd5b61109a8361101a565b915060208301356110aa81611073565b809150509250929050565b5f602082840312156110c5575f80fd5b5035919050565b6020808252601a908201527f416461707465723a207661756c74206e6f7420616c6c6f776564000000000000604082015260600190565b634e487b7160e01b5f52601160045260245ffd5b808202811582820484141761112e5761112e611103565b92915050565b5f8261114e57634e487b7160e01b5f52601260045260245ffd5b500490565b8181038181111561112e5761112e611103565b5f60208284031215611176575f80fd5b5051919050565b80516001600160801b03811681146109ed575f80fd5b5f60c082840312156111a3575f80fd5b60405160c0810181811067ffffffffffffffff821117156111d257634e487b7160e01b5f52604160045260245ffd5b6040526111de8361117d565b81526111ec6020840161117d565b60208201526111fd6040840161117d565b604082015261120e6060840161117d565b606082015261121f6080840161117d565b608082015261123060a0840161117d565b60a08201529392505050565b5f6060828403121561124c575f80fd5b6040516060810181811067ffffffffffffffff8211171561127b57634e487b7160e01b5f52604160045260245ffd5b6040528251815261128e6020840161117d565b602082015261129f6040840161117d565b60408201529392505050565b8082018082111561112e5761112e611103565b60208082526012908201527127bbb730b136329d103737ba1037bbb732b960711b604082015260600190565b80546001600160a01b039081168352600182015481166020840152600282015481166040840152600382015416606083015260040154608090910152565b610120810161133782886112ea565b60a082019590955260c08101939093526001600160a01b0391821660e08401521661010090910152919050565b5f8060408385031215611375575f80fd5b505080516020909101519092909150565b5f60208284031215611396575f80fd5b8151610abc81611073565b5f6101206113af83886112ea565b60a08301959095525060c08101929092526001600160a01b031660e082015261010081018290525f918101919091526101400191905056fea264697066735822122001a5811a026e2969d263950bc7430858acd1f2b7c8fb0609eb2825df945938da64736f6c63430008180033","linkReferences":{}},"methodIdentifiers":{"asset()":"38d52e0f","deposit(uint256)":"b6b55f25","isVaultAllowed(address)":"280ccd87","marketId()":"6ed71ede","marketParams()":"7b9e68f2","morpho()":"d8fbc833","owner()":"8da5cb5b","renounceOwnership()":"715018a6","setAllowedVault(address,bool)":"6bbdc24b","sharesOf(address)":"f5eb42dc","strategyId()":"492f4e18","totalAssets()":"01e1d114","totalShares()":"3a98ef39","transferOwnership(address)":"f2fde38b","unrealisedBalance()":"50879e55","withdraw(uint256,address)":"00f714ce","withdrawAll(address)":"fa09e630"},"id":26}