{"abi":[{"type":"constructor","inputs":[{"name":"asset_","type":"address","internalType":"address"},{"name":"strategyId_","type":"bytes32","internalType":"bytes32"},{"name":"yieldVault_","type":"address","internalType":"address"},{"name":"owner_","type":"address","internalType":"address"}],"stateMutability":"nonpayable"},{"type":"function","name":"asset","inputs":[],"outputs":[{"name":"","type":"address","internalType":"address"}],"stateMutability":"view"},{"type":"function","name":"deposit","inputs":[{"name":"amount","type":"uint256","internalType":"uint256"}],"outputs":[{"name":"sharesMinted","type":"uint256","internalType":"uint256"}],"stateMutability":"nonpayable"},{"type":"function","name":"isVaultAllowed","inputs":[{"name":"","type":"address","internalType":"address"}],"outputs":[{"name":"","type":"bool","internalType":"bool"}],"stateMutability":"view"},{"type":"function","name":"owner","inputs":[],"outputs":[{"name":"","type":"address","internalType":"address"}],"stateMutability":"view"},{"type":"function","name":"renounceOwnership","inputs":[],"outputs":[],"stateMutability":"nonpayable"},{"type":"function","name":"setAllowedVault","inputs":[{"name":"vault","type":"address","internalType":"address"},{"name":"allowed","type":"bool","internalType":"bool"}],"outputs":[],"stateMutability":"nonpayable"},{"type":"function","name":"sharesOf","inputs":[{"name":"","type":"address","internalType":"address"}],"outputs":[{"name":"","type":"uint256","internalType":"uint256"}],"stateMutability":"view"},{"type":"function","name":"strategyId","inputs":[],"outputs":[{"name":"","type":"bytes32","internalType":"bytes32"}],"stateMutability":"view"},{"type":"function","name":"totalAssets","inputs":[],"outputs":[{"name":"","type":"uint256","internalType":"uint256"}],"stateMutability":"view"},{"type":"function","name":"totalShares","inputs":[],"outputs":[{"name":"","type":"uint256","internalType":"uint256"}],"stateMutability":"view"},{"type":"function","name":"transferOwnership","inputs":[{"name":"newOwner","type":"address","internalType":"address"}],"outputs":[],"stateMutability":"nonpayable"},{"type":"function","name":"unrealisedBalance","inputs":[],"outputs":[{"name":"","type":"uint256","internalType":"uint256"}],"stateMutability":"view"},{"type":"function","name":"withdraw","inputs":[{"name":"shares","type":"uint256","internalType":"uint256"},{"name":"recipient","type":"address","internalType":"address"}],"outputs":[{"name":"assets","type":"uint256","internalType":"uint256"}],"stateMutability":"nonpayable"},{"type":"function","name":"withdrawAll","inputs":[{"name":"recipient","type":"address","internalType":"address"}],"outputs":[{"name":"assets","type":"uint256","internalType":"uint256"}],"stateMutability":"nonpayable"},{"type":"function","name":"yieldVault","inputs":[],"outputs":[{"name":"","type":"address","internalType":"contract IERC4626Minimal"}],"stateMutability":"view"},{"type":"event","name":"OwnershipTransferred","inputs":[{"name":"previousOwner","type":"address","indexed":true,"internalType":"address"},{"name":"newOwner","type":"address","indexed":true,"internalType":"address"}],"anonymous":false},{"type":"event","name":"VaultAllowlistUpdated","inputs":[{"name":"vault","type":"address","indexed":true,"internalType":"address"},{"name":"allowed","type":"bool","indexed":false,"internalType":"bool"}],"anonymous":false}],"bytecode":{"object":"0x60e060405234801562000010575f80fd5b5060405162001592380380620015928339810160408190526200003391620002b4565b8383620000403362000249565b6001600160a01b0382166200008d5760405162461bcd60e51b815260206004820152600e60248201526d1059185c1d195c8e88185cdcd95d60921b60448201526064015b60405180910390fd5b80620000ca5760405162461bcd60e51b815260206004820152600b60248201526a1059185c1d195c8e881a5960aa1b604482015260640162000084565b6001600160a01b0391821660805260a05282166200012b5760405162461bcd60e51b815260206004820152601960248201527f50656e646c65416461707465723a207661756c74207a65726f00000000000000604482015260640162000084565b816001600160a01b031660c0816001600160a01b031681525050836001600160a01b031660c0516001600160a01b03166338d52e0f6040518163ffffffff1660e01b8152600401602060405180830381865afa1580156200018e573d5f803e3d5ffd5b505050506040513d601f19601f82011682018060405250810190620001b4919062000305565b6001600160a01b0316146200020c5760405162461bcd60e51b815260206004820152601d60248201527f50656e646c65416461707465723a206173736574206d69736d61746368000000604482015260640162000084565b6001600160a01b038116158015906200022e57506001600160a01b0381163314155b156200023f576200023f8162000249565b5050505062000328565b5f80546001600160a01b038381166001600160a01b0319831681178455604051919092169283917f8be0079c531659141344cd1fd0a4f28419497f9722a3daafe3b4186f6b6457e09190a35050565b80516001600160a01b0381168114620002af575f80fd5b919050565b5f805f8060808587031215620002c8575f80fd5b620002d38562000298565b935060208501519250620002ea6040860162000298565b9150620002fa6060860162000298565b905092959194509250565b5f6020828403121562000316575f80fd5b620003218262000298565b9392505050565b60805160a05160c0516111eb620003a75f395f81816101f60152818161057201528181610602015281816109f101528181610a8401528181610b2001528181610dfc01528181610e300152610e7301525f61019801525f818161015501528181610495015281816104c90152818161082d0152610dce01526111eb5ff3fe608060405234801561000f575f80fd5b50600436106100ef575f3560e01c80636bbdc24b11610093578063b6b55f2511610063578063b6b55f2514610218578063f2fde38b1461022b578063f5eb42dc1461023e578063fa09e6301461025d575f80fd5b80636bbdc24b146101c4578063715018a6146101d95780638da5cb5b146101e1578063a7f8a5e2146101f1575f80fd5b806338d52e0f116100ce57806338d52e0f146101535780633a98ef391461018d578063492f4e181461019657806350879e55146101bc575f80fd5b8062f714ce146100f357806301e1d11414610119578063280ccd8714610121575b5f80fd5b61010661010136600461100e565b610270565b6040519081526020015b60405180910390f35b6101066104c5565b61014361012f366004611038565b60036020525f908152604090205460ff1681565b6040519015158152602001610110565b7f00000000000000000000000000000000000000000000000000000000000000005b6040516001600160a01b039091168152602001610110565b61010660015481565b7f0000000000000000000000000000000000000000000000000000000000000000610106565b610106610687565b6101d76101d236600461105e565b610695565b005b6101d7610768565b5f546001600160a01b0316610175565b6101757f000000000000000000000000000000000000000000000000000000000000000081565b610106610226366004611093565b61079c565b6101d7610239366004611038565b610908565b61010661024c366004611038565b60026020525f908152604090205481565b61010661026b366004611038565b61098b565b335f9081526003602052604081205460ff166102a75760405162461bcd60e51b815260040161029e906110aa565b60405180910390fd5b5f83116102ed5760405162461bcd60e51b8152602060048201526014602482015273416461707465723a207a65726f2073686172657360601b604482015260640161029e565b6001600160a01b0382166103435760405162461bcd60e51b815260206004820152601760248201527f416461707465723a207a65726f20726563697069656e74000000000000000000604482015260640161029e565b335f90815260026020526040902054838110156103a25760405162461bcd60e51b815260206004820152601c60248201527f416461707465723a20696e73756666696369656e742073686172657300000000604482015260640161029e565b6001545f6103ae6104c5565b90505f821180156103be57505f81115b6103fb5760405162461bcd60e51b815260206004820152600e60248201526d416461707465723a20656d70747960901b604482015260640161029e565b8161040682886110f5565b6104109190611112565b93505f84116104585760405162461bcd60e51b8152602060048201526014602482015273416461707465723a207a65726f2061737365747360601b604482015260640161029e565b6104628684611131565b335f9081526002602052604090205561047b8683611131565b60015561048833856109d9565b6104bc6001600160a01b037f0000000000000000000000000000000000000000000000000000000000000000168686610beb565b50505092915050565b5f807f00000000000000000000000000000000000000000000000000000000000000006040516370a0823160e01b81523060048201526001600160a01b0391909116906370a0823190602401602060405180830381865afa15801561052c573d5f803e3d5ffd5b505050506040513d601f19601f820116820180604052508101906105509190611144565b6040516370a0823160e01b81523060048201529091505f906001600160a01b037f000000000000000000000000000000000000000000000000000000000000000016906370a0823190602401602060405180830381865afa1580156105b7573d5f803e3d5ffd5b505050506040513d601f19601f820116820180604052508101906105db9190611144565b9050805f036105ea5750919050565b6040516303d1689d60e11b8152600481018290525f907f00000000000000000000000000000000000000000000000000000000000000006001600160a01b0316906307a2d13a90602401602060405180830381865afa15801561064f573d5f803e3d5ffd5b505050506040513d601f19601f820116820180604052508101906106739190611144565b905061067f818461115b565b935050505090565b5f6106906104c5565b905090565b5f546001600160a01b031633146106be5760405162461bcd60e51b815260040161029e9061116e565b6001600160a01b03821661070a5760405162461bcd60e51b8152602060048201526013602482015272416461707465723a207661756c74207a65726f60681b604482015260640161029e565b6001600160a01b0382165f81815260036020908152604091829020805460ff191685151590811790915591519182527f1ec529fc89837cf2f7a9520cf1474cc5faa9a17ecc6a4eae9beaeb5067452a95910160405180910390a25050565b5f546001600160a01b031633146107915760405162461bcd60e51b815260040161029e9061116e565b61079a5f610cb3565b565b335f9081526003602052604081205460ff166107ca5760405162461bcd60e51b815260040161029e906110aa565b5f82116108115760405162461bcd60e51b81526020600482015260156024820152741059185c1d195c8e881e995c9bc819195c1bdcda5d605a1b604482015260640161029e565b5f61081a6104c5565b6001549091506108556001600160a01b037f000000000000000000000000000000000000000000000000000000000000000016333087610d02565b61085f3385610dcc565b80158061086a575081155b156108775783925061088f565b8161088282866110f5565b61088c9190611112565b92505b5f83116108d05760405162461bcd60e51b815260206004820152600f60248201526e416461707465723a2073686172657360881b604482015260640161029e565b6108da838261115b565b600155335f90815260026020526040812080548592906108fb90849061115b565b909155505050505b919050565b5f546001600160a01b031633146109315760405162461bcd60e51b815260040161029e9061116e565b6001600160a01b03811661097f5760405162461bcd60e51b81526020600482015260156024820152744f776e61626c653a207a65726f206164647265737360581b604482015260640161029e565b61098881610cb3565b50565b335f9081526003602052604081205460ff166109b95760405162461bcd60e51b815260040161029e906110aa565b335f908152600260205260409020546109d28184610270565b9392505050565b6040516363737ac960e11b8152600481018290525f907f00000000000000000000000000000000000000000000000000000000000000006001600160a01b03169063c6e6f59290602401602060405180830381865afa158015610a3e573d5f803e3d5ffd5b505050506040513d601f19601f82011682018060405250810190610a629190611144565b6040516370a0823160e01b81523060048201529091505f906001600160a01b037f000000000000000000000000000000000000000000000000000000000000000016906370a0823190602401602060405180830381865afa158015610ac9573d5f803e3d5ffd5b505050506040513d601f19601f82011682018060405250810190610aed9190611144565b905080821115610afb578091505b604051635d043b2960e11b815260048101839052306024820181905260448201525f907f00000000000000000000000000000000000000000000000000000000000000006001600160a01b03169063ba087652906064016020604051808303815f875af1158015610b6e573d5f803e3d5ffd5b505050506040513d601f19601f82011682018060405250810190610b929190611144565b905083811015610be45760405162461bcd60e51b815260206004820152601d60248201527f50656e646c65416461707465723a2077697468647261772073686f7274000000604482015260640161029e565b5050505050565b60405163a9059cbb60e01b81526001600160a01b038381166004830152602482018390525f919085169063a9059cbb906044016020604051808303815f875af1158015610c3a573d5f803e3d5ffd5b505050506040513d601f19601f82011682018060405250810190610c5e919061119a565b905080610cad5760405162461bcd60e51b815260206004820152601a60248201527f5361666545524332303a207472616e73666572206661696c6564000000000000604482015260640161029e565b50505050565b5f80546001600160a01b038381166001600160a01b0319831681178455604051919092169283917f8be0079c531659141344cd1fd0a4f28419497f9722a3daafe3b4186f6b6457e09190a35050565b6040516323b872dd60e01b81526001600160a01b0384811660048301528381166024830152604482018390525f91908616906323b872dd906064016020604051808303815f875af1158015610d59573d5f803e3d5ffd5b505050506040513d601f19601f82011682018060405250810190610d7d919061119a565b905080610be45760405162461bcd60e51b815260206004820152601e60248201527f5361666545524332303a207472616e7366657246726f6d206661696c65640000604482015260640161029e565b7f0000000000000000000000000000000000000000000000000000000000000000610e216001600160a01b0382167f00000000000000000000000000000000000000000000000000000000000000005f610f36565b610e556001600160a01b0382167f000000000000000000000000000000000000000000000000000000000000000084610f36565b604051636e553f6560e01b8152600481018390523060248201525f907f00000000000000000000000000000000000000000000000000000000000000006001600160a01b031690636e553f65906044016020604051808303815f875af1158015610ec1573d5f803e3d5ffd5b505050506040513d601f19601f82011682018060405250810190610ee59190611144565b90505f8111610cad5760405162461bcd60e51b815260206004820152601a60248201527f50656e646c65416461707465723a207a65726f20736861726573000000000000604482015260640161029e565b60405163095ea7b360e01b81526001600160a01b038381166004830152602482018390525f919085169063095ea7b3906044016020604051808303815f875af1158015610f85573d5f803e3d5ffd5b505050506040513d601f19601f82011682018060405250810190610fa9919061119a565b905080610cad5760405162461bcd60e51b815260206004820152601960248201527f5361666545524332303a20617070726f7665206661696c656400000000000000604482015260640161029e565b80356001600160a01b0381168114610903575f80fd5b5f806040838503121561101f575f80fd5b8235915061102f60208401610ff8565b90509250929050565b5f60208284031215611048575f80fd5b6109d282610ff8565b8015158114610988575f80fd5b5f806040838503121561106f575f80fd5b61107883610ff8565b9150602083013561108881611051565b809150509250929050565b5f602082840312156110a3575f80fd5b5035919050565b6020808252601a908201527f416461707465723a207661756c74206e6f7420616c6c6f776564000000000000604082015260600190565b634e487b7160e01b5f52601160045260245ffd5b808202811582820484141761110c5761110c6110e1565b92915050565b5f8261112c57634e487b7160e01b5f52601260045260245ffd5b500490565b8181038181111561110c5761110c6110e1565b5f60208284031215611154575f80fd5b5051919050565b8082018082111561110c5761110c6110e1565b60208082526012908201527127bbb730b136329d103737ba1037bbb732b960711b604082015260600190565b5f602082840312156111aa575f80fd5b81516109d28161105156fea264697066735822122065601a1f4355beb8e82825eb33c6a912b51b5ea9d6e0b86e492c7e38086adadb64736f6c63430008180033","linkReferences":{}},"methodIdentifiers":{"asset()":"38d52e0f","deposit(uint256)":"b6b55f25","isVaultAllowed(address)":"280ccd87","owner()":"8da5cb5b","renounceOwnership()":"715018a6","setAllowedVault(address,bool)":"6bbdc24b","sharesOf(address)":"f5eb42dc","strategyId()":"492f4e18","totalAssets()":"01e1d114","totalShares()":"3a98ef39","transferOwnership(address)":"f2fde38b","unrealisedBalance()":"50879e55","withdraw(uint256,address)":"00f714ce","withdrawAll(address)":"fa09e630","yieldVault()":"a7f8a5e2"},"id":27}