{"abi":[{"type":"constructor","inputs":[{"name":"_implementation","type":"address","internalType":"address"}],"stateMutability":"nonpayable"},{"type":"function","name":"MAX_COMMISSION_BPS","inputs":[],"outputs":[{"name":"","type":"uint16","internalType":"uint16"}],"stateMutability":"view"},{"type":"function","name":"MAX_EXIT_PENALTY_BPS","inputs":[],"outputs":[{"name":"","type":"uint16","internalType":"uint16"}],"stateMutability":"view"},{"type":"function","name":"createLeague","inputs":[{"name":"params","type":"tuple","internalType":"struct ILeagueFactory.CreateParams","components":[{"name":"leagueId","type":"bytes32","internalType":"bytes32"},{"name":"creator","type":"address","internalType":"address"},{"name":"asset","type":"address","internalType":"address"},{"name":"entryAmount","type":"uint256","internalType":"uint256"},{"name":"exitPenaltyBps","type":"uint16","internalType":"uint16"},{"name":"commissionBps","type":"uint16","internalType":"uint16"},{"name":"strategyId","type":"bytes32","internalType":"bytes32"},{"name":"canEarlyExit","type":"bool","internalType":"bool"}]}],"outputs":[{"name":"vault","type":"address","internalType":"address"}],"stateMutability":"nonpayable"},{"type":"function","name":"getStrategyAdapter","inputs":[{"name":"strategyId","type":"bytes32","internalType":"bytes32"}],"outputs":[{"name":"adapter","type":"address","internalType":"address"},{"name":"enabled","type":"bool","internalType":"bool"}],"stateMutability":"view"},{"type":"function","name":"implementation","inputs":[],"outputs":[{"name":"","type":"address","internalType":"address"}],"stateMutability":"view"},{"type":"function","name":"owner","inputs":[],"outputs":[{"name":"","type":"address","internalType":"address"}],"stateMutability":"view"},{"type":"function","name":"renounceOwnership","inputs":[],"outputs":[],"stateMutability":"nonpayable"},{"type":"function","name":"setStrategyAdapter","inputs":[{"name":"strategyId","type":"bytes32","internalType":"bytes32"},{"name":"adapter","type":"address","internalType":"address"},{"name":"enabled","type":"bool","internalType":"bool"}],"outputs":[],"stateMutability":"nonpayable"},{"type":"function","name":"setVaultImplementation","inputs":[{"name":"_implementation","type":"address","internalType":"address"}],"outputs":[],"stateMutability":"nonpayable"},{"type":"function","name":"transferOwnership","inputs":[{"name":"newOwner","type":"address","internalType":"address"}],"outputs":[],"stateMutability":"nonpayable"},{"type":"function","name":"vaultByLeagueId","inputs":[{"name":"","type":"bytes32","internalType":"bytes32"}],"outputs":[{"name":"","type":"address","internalType":"address"}],"stateMutability":"view"},{"type":"function","name":"vaultImplementation","inputs":[],"outputs":[{"name":"","type":"address","internalType":"address"}],"stateMutability":"view"},{"type":"event","name":"LeagueCreated","inputs":[{"name":"leagueId","type":"bytes32","indexed":true,"internalType":"bytes32"},{"name":"vault","type":"address","indexed":true,"internalType":"address"},{"name":"creator","type":"address","indexed":true,"internalType":"address"}],"anonymous":false},{"type":"event","name":"OwnershipTransferred","inputs":[{"name":"previousOwner","type":"address","indexed":true,"internalType":"address"},{"name":"newOwner","type":"address","indexed":true,"internalType":"address"}],"anonymous":false},{"type":"event","name":"StrategyRegistryUpdated","inputs":[{"name":"strategyId","type":"bytes32","indexed":true,"internalType":"bytes32"},{"name":"adapter","type":"address","indexed":false,"internalType":"address"},{"name":"enabled","type":"bool","indexed":false,"internalType":"bool"}],"anonymous":false},{"type":"event","name":"VaultImplementationUpdated","inputs":[{"name":"newImplementation","type":"address","indexed":true,"internalType":"address"}],"anonymous":false}],"bytecode":{"object":"0x608060405234801561000f575f80fd5b50604051610eea380380610eea83398101604081905261002e9161012c565b610037336100dd565b6001600160a01b0381166100915760405162461bcd60e51b815260206004820152601560248201527f4c6561677565466163746f72793a20696d706c3d300000000000000000000000604482015260640160405180910390fd5b600180546001600160a01b0319166001600160a01b0383169081179091556040517fa18254b43b40616bb21983c995ff77276701b68421ab1512749ed80d91e12a85905f90a250610159565b5f80546001600160a01b038381166001600160a01b0319831681178455604051919092169283917f8be0079c531659141344cd1fd0a4f28419497f9722a3daafe3b4186f6b6457e09190a35050565b5f6020828403121561013c575f80fd5b81516001600160a01b0381168114610152575f80fd5b9392505050565b610d84806101665f395ff3fe608060405234801561000f575f80fd5b50600436106100b1575f3560e01c8063715018a61161006e578063715018a6146101ba5780638da5cb5b146101c2578063bba48a90146101d2578063e62977f8146101e5578063f2fde38b146101ee578063f738efbd14610201575f80fd5b806315112ccf146100b5578063268036c0146100fa5780632df5e23b1461010f5780634f87745e1461012b57806353e78b6b146101965780635c60da1b146101a9575b5f80fd5b6100dd6100c3366004610c3c565b60036020525f90815260409020546001600160a01b031681565b6040516001600160a01b0390911681526020015b60405180910390f35b61010d610108366004610c78565b610214565b005b61011861271081565b60405161ffff90911681526020016100f1565b610177610139366004610c3c565b5f908152600260209081526040918290208251808401909352546001600160a01b038116808452600160a01b90910460ff1615159290910182905291565b604080516001600160a01b0390931683529015156020830152016100f1565b61010d6101a4366004610cb1565b61037a565b6001546001600160a01b03166100dd565b61010d61043a565b5f546001600160a01b03166100dd565b6001546100dd906001600160a01b031681565b6101186107d081565b61010d6101fc366004610cb1565b61046e565b6100dd61020f366004610cd1565b6104f1565b5f546001600160a01b031633146102465760405162461bcd60e51b815260040161023d90610ce8565b60405180910390fd5b826102935760405162461bcd60e51b815260206004820152601960248201527f4c6561677565466163746f72793a207374726174656779496400000000000000604482015260640161023d565b80156102e8576001600160a01b0382166102e85760405162461bcd60e51b81526020600482015260166024820152752632b0b3bab2a330b1ba37b93c9d1030b230b83a32b960511b604482015260640161023d565b6040805180820182526001600160a01b0384811680835284151560208085018281525f8a8152600283528790209551865491511515600160a01b026001600160a81b03199092169516949094179390931790935583519081529081019190915284917f615d4057e2a0afc2fe8d1b1bf8ae790f9daad59bdd0c3bf889cf23e5ff2b9b35910160405180910390a2505050565b5f546001600160a01b031633146103a35760405162461bcd60e51b815260040161023d90610ce8565b6001600160a01b0381166103f15760405162461bcd60e51b815260206004820152601560248201527404c6561677565466163746f72793a20696d706c3d3605c1b604482015260640161023d565b600180546001600160a01b0319166001600160a01b0383169081179091556040517fa18254b43b40616bb21983c995ff77276701b68421ab1512749ed80d91e12a85905f90a250565b5f546001600160a01b031633146104635760405162461bcd60e51b815260040161023d90610ce8565b61046c5f610b57565b565b5f546001600160a01b031633146104975760405162461bcd60e51b815260040161023d90610ce8565b6001600160a01b0381166104e55760405162461bcd60e51b81526020600482015260156024820152744f776e61626c653a207a65726f206164647265737360581b604482015260640161023d565b6104ee81610b57565b50565b6001545f906001600160a01b031661054b5760405162461bcd60e51b815260206004820152601960248201527f4c6561677565466163746f72793a20696d706c20756e73657400000000000000604482015260640161023d565b6001546001600160a01b03163b6105a45760405162461bcd60e51b815260206004820152601860248201527f4c6561677565466163746f72793a20696d706c20636f64650000000000000000604482015260640161023d565b81356105f25760405162461bcd60e51b815260206004820152601760248201527f4c6561677565466163746f72793a206c65616775654964000000000000000000604482015260640161023d565b5f6106036040840160208501610cb1565b6001600160a01b0316036106525760405162461bcd60e51b81526020600482015260166024820152752632b0b3bab2a330b1ba37b93c9d1031b932b0ba37b960511b604482015260640161023d565b5f6106636060840160408501610cb1565b6001600160a01b0316036106b05760405162461bcd60e51b815260206004820152601460248201527313195859dd59519858dd1bdc9e4e88185cdcd95d60621b604482015260640161023d565b6127106106c360a0840160808501610d14565b61ffff16111561070e5760405162461bcd60e51b81526020600482015260166024820152754c6561677565466163746f72793a2070656e616c747960501b604482015260640161023d565b6107d061072160c0840160a08501610d14565b61ffff1611156107735760405162461bcd60e51b815260206004820152601960248201527f4c6561677565466163746f72793a20636f6d6d697373696f6e00000000000000604482015260640161023d565b81355f908152600360205260409020546001600160a01b0316156107d15760405162461bcd60e51b81526020600482015260156024820152744c6561677565466163746f72793a2065786973747360581b604482015260640161023d565b60c08201355f908152600260209081526040918290208251808401909352546001600160a01b0381168352600160a01b900460ff16158015918301829052610822575080516001600160a01b031615155b61086e5760405162461bcd60e51b815260206004820152601760248201527f4c6561677565466163746f72793a207374726174656779000000000000000000604482015260640161023d565b600154610883906001600160a01b0316610ba6565b91505f826001600160a01b03163b116108de5760405162461bcd60e51b815260206004820152601960248201527f4c6561677565466163746f72793a20636c6f6e6520636f646500000000000000604482015260640161023d565b60408051610100810182525f80825260208201819052918101829052606081018290526080810182905260a0810182905260c0810182905260e0810191909152833581526109326060850160408601610cb1565b6001600160a01b03166020808301919091526109549060408601908601610cb1565b6001600160a01b0316604082015260c084013560608083019190915284013560808083019190915261098c9060a08601908601610d14565b61ffff1660a0808301919091526109a99060c08601908601610d14565b61ffff1660c08201526109c3610100850160e08601610d35565b151560e082019081526040805163a384375f60e01b81528351600482015260208401516001600160a01b0390811660248301529184015182166044820152606084015160648201526080840151608482015260a084015161ffff90811660a483015260c08501511660c48201529151151560e483015284169063a384375f90610104015f604051808303815f87803b158015610a5d575f80fd5b505af1158015610a6f573d5f803e3d5ffd5b50505084355f90815260036020526040902080546001600160a01b0319166001600160a01b0386811691909117909155835116159050610b06578151604051636bbdc24b60e01b81526001600160a01b0385811660048301526001602483015290911690636bbdc24b906044015f604051808303815f87803b158015610af3575f80fd5b505af1925050508015610b04575060015b505b610b166040850160208601610cb1565b6040516001600160a01b03918216918516908635907fd99e5a37a010e1c9c403dd09db85c2d07a40bb43e4c3b0d877ed52529a1e4dd9905f90a45050919050565b5f80546001600160a01b038381166001600160a01b0319831681178455604051919092169283917f8be0079c531659141344cd1fd0a4f28419497f9722a3daafe3b4186f6b6457e09190a35050565b5f763d602d80600a3d3981f3363d3d373d3d3d363d730000008260601b60e81c175f526e5af43d82803e903d91602b57fd5bf38260781b17602052603760095ff090506001600160a01b038116610c375760405162461bcd60e51b815260206004820152601560248201527410db1bdb995cce8818dc99585d194819985a5b1959605a1b604482015260640161023d565b919050565b5f60208284031215610c4c575f80fd5b5035919050565b80356001600160a01b0381168114610c37575f80fd5b80358015158114610c37575f80fd5b5f805f60608486031215610c8a575f80fd5b83359250610c9a60208501610c53565b9150610ca860408501610c69565b90509250925092565b5f60208284031215610cc1575f80fd5b610cca82610c53565b9392505050565b5f6101008284031215610ce2575f80fd5b50919050565b60208082526012908201527127bbb730b136329d103737ba1037bbb732b960711b604082015260600190565b5f60208284031215610d24575f80fd5b813561ffff81168114610cca575f80fd5b5f60208284031215610d45575f80fd5b610cca82610c6956fea2646970667358221220f93380436d562cbb53839472ff3b70cfc15a746ddb16cae6b8a19b46acef0cf464736f6c63430008180033","linkReferences":{}},"methodIdentifiers":{"MAX_COMMISSION_BPS()":"e62977f8","MAX_EXIT_PENALTY_BPS()":"2df5e23b","createLeague((bytes32,address,address,uint256,uint16,uint16,bytes32,bool))":"f738efbd","getStrategyAdapter(bytes32)":"4f87745e","implementation()":"5c60da1b","owner()":"8da5cb5b","renounceOwnership()":"715018a6","setStrategyAdapter(bytes32,address,bool)":"268036c0","setVaultImplementation(address)":"53e78b6b","transferOwnership(address)":"f2fde38b","vaultByLeagueId(bytes32)":"15112ccf","vaultImplementation()":"bba48a90"},"id":28}